:020000040000FA
:060000005FEF3AF0120070
:020006001200E6
:0600080028EF00F01200D9
:01000E0000F1
:01000F0000F0
:03001000000000ED
:06001800DBEF01F0120015
:02001E000400DC
:1000200010000000CB0D0000030000000F000000D6
:10003000D10D0000010000000E000000D00D0000F6
:100040000100000004750000000D0000B100000078
:10005000DACFE4FFE2CFDAFFE9CFE4FFEACFE4FF53
:10006000D9CFE4FFDACFE4FFC7CDE4FFC8CDE4FF8A
:10007000C9CDE4FFCACDE4FFF6CFE4FFF7CFE4FF3C
:10008000F5CFE4FFF3CFE4FFF4CFE4FFFACFE4FFD2
:100090000DEEC1F0060EE80403E3EECFE4FFFBD75C
:1000A000E6529E50200B01E0010E0D01BB6FBC6BB0
:1000B000BB51BC1109E09E9A9E9A9F8A9D9A819A93
:1000C0000D01010E436F4FD19E50020B01E0010E56
:1000D000BB6FBC6BBB51BC1101E1AED0CA949E9208
:1000E0000E01E451080B01E0010E0D01BB6FBC6B6A
:1000F000BB1D0E01E8B0E487E8A0E4977B0ECA6E52
:100100009A0ECC6ECBCDBBFD0D01BC6BBBBFBC69E9
:10011000BB51BC1115E048CDBBFDBC6BBBBFBC697E
:10012000BC3504E2BB510208000EBC5505E20D01CE
:10013000486B010E406F03D00D01482BCA847BD061
:10014000CDCDBBFDBC6BBBBFBC69BB51BC1173E06B
:100150000D01AD2B000EAE234CCDBBFD0D01BC6BD4
:10016000BBBFBC69BB51BC114EE10D01AE3504E211
:10017000AD51C408090EAE5505E2AD6BAE6B010E74
:10018000466F40D0AE3504E2AD514D08000EAE557D
:1001900009E246CDBDFD0D01BE6BBDBFBE69BD51BF
:1001A000BE1102E1000E01D0010E0D01BB6FBC6B50
:1001B000BB51BC1106E00D01AD6BAE6B010E476F7C
:1001C00021D00D01AE3504E2AD514D08000EAE5503
:1001D00009E23CCDBDFD0D01BE6BBDBFBE69BD5189
:1001E000BE1102E1000E01D0010E0D01BB6FBC6B10
:1001F000BB51BC1106E00D01AD6BAE6B010E3D6F46
:1002000001D0CA8418D04CCDBBFDBC6BBBBFBC6950
:10021000010EBB1901E1BC510EE10D01AE3504E246
:10022000AD511E08000EAE5505E2AD6BAE6B010E72
:10023000476F01D0CA8497D0A150020B01E0010E94
:10024000BB6FBC6BBB51BC1111E0280ED56E860E86
:10025000CD6EB190A192320EB16ED80EB36EEF0E8C
:10026000B26E010E0D01D16FD26B7DD0B850010B73
:10027000BB6FBC6BBB51BC112EE00F010495B89055
:100280007B0E046F066BCDCDBBFD0D01BC6BBBBF00
:10029000BC69BB51BC111EE00D01AF2B000EB02399
:1002A0004CCDBBFD0D01BC6BBBBFBC69010EBB19C6
:1002B00001E1BC510FE10D01B03504E2AF511E0860
:1002C000000EB05505E2AF6BB06B010E456F02D06A
:1002D0000F01048548D09E50400B01E0010EBB6F1A
:1002E000BC6BBB51BC113FE09E9CCBCDBDFDBE6B3A
:1002F000BDBFBE69BD51BE110AE1CCCDBFFDC06B13
:10030000BFBFC069BF51C01102E1000E01D0010E94
:10031000BB6FBC6BBB51BC1125E0CBCDBBFDBC6B37
:10032000BBBFBC69BB51BC110DE0E66A41CDBBFD52
:10033000BC6BBBBFBC69BBCDE6FFE66A18EC2CF01A
:1003400043E90DD0E66A41CDBBFDBC6BBBBFBC69C8
:10035000BBCDE6FF020EE66E18EC2CF043E90D0172
:10036000010E426F00D0E5520DEEC6F0060EE80415
:1003700003E3E5CFEDFFFBD7E5CFFAFFE5CFF4FFD1
:10038000E5CFF3FFE5CFF5FFE5CFF7FFE5CFF6FFCC
:10039000E5CFCAFDE5CFC9FDE5CFC8FDE5CFC7FD77
:1003A000E5CFDAFFE5CFD9FFE5CFEAFFE5CFE9FFFB
:1003B000E5CFDAFF1100D8CFE4FFE0CFE4FFE46E31
:1003C000DACFE4FFE2CFDAFFE652E552E5CFDAFF1B
:1003D000E550E5CFE0FFE5CFD8FF1000300ED36E3B
:1003E000200E646E9B6A80EC34F0EDEC39F0F2EC98
:1003F00039F0F7EC39F000EC3AF00BEC3AF0B3ECF2
:1004000038F0E66A010EE66E7CEC28F042E9C68A16
:10041000080EE66EDCEC25F041E9090EE66EDCEC38
:1004200025F041E90A0EE66EDCEC25F041E90B0E01
:10043000E66EDCEC25F041E977EC3AF0E9EC2FF0E0
:10044000E66A07EC34F041E9010EE66E07EC34F0A1
:1004500041E9E66A8EEC32F041E9010EE66E8EEC7F
:1004600032F041E9DAEC36F0090EE66EE66A53EC5A
:1004700039F042E91200D9CFE6FFE1CFD9FF81E997
:1004800041E8016A130EE66E0A0EE66EEBEC24F00C
:1004900042E9016E01EBC1FD0D01C26BC1BFC26932
:1004A000080EC111E66E130EE66E0A0EE66E60ECE3
:1004B00024F043E901EBC1FD0D01C26BC1BFC2696C
:1004C000F70EC115E66E130EE66E0A0EE66E60ECD0
:1004D00024F043E942E9E7CFD9FF1200D9CFE6FF84
:1004E000E1CFD9FF83E900EBF3FF01EBF4FF150E39
:1004F000F31801E1F45001E1DBD0140EF31801E12F
:10050000F45001E1D0D0130EF31801E1F45001E1F1
:10051000C5D0120EF31801E1F45001E1BAD0110E6A
:10052000F31801E1F45001E1AFD0100EF31801E12E
:10053000F45001E1A4D00F0EF31801E1F45001E1F1
:1005400099D00E0EF31801E1F45001E18ED00D0E9A
:10055000F31801E1F45001E183D00C0EF31801E12E
:10056000F45001E178D00B0EF31801E1F4506EE085
:100570000A0EF31801E1F45064E0090EF31801E1EA
:10058000F4505AE0080EF31801E1F45050E0070E61
:10059000F31801E1F45046E0060EF31801E1F450BF
:1005A0003CE0050EF31801E1F45032E0040EF318BC
:1005B00001E1F45028E0030EF31801E1F4501EE0CD
:1005C000020EF31801E1F45014E0010EF31801E1FA
:1005D000F4500AE0F35001E1F45001E06ED0010E56
:1005E0000D014D114D6F69D0020E0D014D114D6F72
:1005F00064D0040E0D014D114D6F5FD0080E0D013A
:100600004D114D6F5AD0100E0D014D114D6F55D03B
:10061000200E0D014D114D6F50D00D014D51010EA9
:100620004E134BD00D014D51020E4E1346D00D010D
:100630004D51040E4E1341D00D014D51080E4E1375
:100640003CD00D014D51100E4E1337D0010E0D014F
:100650004F114F6F32D0020E0D014F114F6F2DD041
:10066000040E0D014F114F6F28D0080E0D014F11D0
:100670004F6F23D0100E0D014F114F6F1ED0200E63
:100680000D014F114F6F19D00D014F51010E501335
:1006900014D00D014F51020E50130FD00D014F51C8
:1006A000040E50130AD00D014F51080E501305D0FF
:1006B0000D014F51100E501300D0DDDE41E9E7CFA0
:1006C000D9FF1200D9CFE6FFE1CFD9FF82E944E894
:1006D000026A036A046A056A00500D01C36FC46BA5
:1006E000060EC56FC551C3CDC1FDC4CDC2FD06E028
:1006F0000D01D890C233C133E804FBE10D01C151B3
:10070000026E3F0E0014006E010EF36EF46AF35099
:10071000021801E1F45054E14ACDC3FDC46BC3BFDC
:10072000C469C43504E2C3510108000EC45508E28F
:1007300044CDC5FDC66BC5BFC669C551C61102E033
:10074000000E01D0010EC16FC26BC151C2112FE06A
:100750004ACDC1FDC26BC1BFC269020EC11901E120
:10076000C25113E100500D01516F526B060E000A89
:1007700006E00D01D89051375237E804FBE10D0136
:100780004A2B818A010E95EF09F04ACDC1FDC26B5B
:10079000C1BFC269030EC11901E1C25107E1005096
:1007A0000D015111516F010E4A6F4B6F58D0030E5E
:1007B000E66EE66A93DE42E9818A000E95EF09F063
:1007C000020EF36EF46AF350021801E1F4501DE1D9
:1007D0004ACDC1FDC26BC1BFC269010EC11901E1A1
:1007E000C2510AE100500D01496F446B4A2B818AC6
:1007F000010E95EF09F033D0030EE66EE66A6EDE69
:1008000042E9818A000E95EF09F0030EF36EF46A57
:10081000F350021801E1F45019E14ACDC1FDC26B59
:10082000C1BFC269010EC11901E1C25106E1005008
:100830000D01496F010E446F12D0030EE66EE66A99
:100840004DDE42E9818A000E95EF09F0030EE66E57
:10085000E66A44DE42E9818A000E95EF09F04BCD4D
:10086000C3FD0D01C46BC3BFC469C351C41108E00B
:1008700044CDC5FDC66BC5BFC669C551C61102E0F2
:10088000000E01D0010EC16FC26BC151C21101E156
:100890009DD349CDC1FDC26BC1BFC269220EC11932
:1008A00001E1C25101E17AD31B0EC11901E1C2512C
:1008B00001E1D1D2160EC11901E1C25101E164D2A8
:1008C000110EC11901E1C25101E1F7D10F0EC11999
:1008D00001E1C25101E1DDD10D0EC11901E1C251A9
:1008E00001E1C3D10C0EC11901E1C25101E144D1B2
:1008F0000A0EC11901E1C25101E12AD1080EC11944
:1009000001E1C25101E110D1070EC11901E1C2514B
:1009100001E184D0010EC11901E1C25109E0040EC8
:10092000E66EE66ADBDD42E9818A000E95EF09F0AA
:1009300049CDE9FFEA6AE9BEEA68D890E936EA36C5
:10094000530EE9260D0EEA2251CDEEFF52CDEDFFFA
:1009500049CDE9FFEA6AE9BEEA68D890E936EA36A5
:10096000530EE9260D0EEA22EECFC1FDEFCFC2FDF8
:10097000E30EC117FF0EC21749CDE9FFEA6AE9BECF
:10098000EA68D890E936EA36530EE9260D0EEA22D7
:10099000C1CDEEFFC2CDEDFF036A03500D01C16F63
:1009A000C26B100ED890C2BF03D0C15D000EC259F9
:1009B00034E2010E0D015115046E056A010E041892
:1009C00001E1055014E10350F36EF46A010EF318CF
:1009D00001E1F45008E0F35001E1F45001E006D0E9
:1009E000010E006F03D0010E016F00D011D0035033
:1009F000F36EF46A010EF31801E1F45007E0F350CE
:100A000001E1F45001E004D0006B02D0016B00D092
:100A1000D89052335133032AC0D7D5D249CDE9FFFC
:100A2000EA6AE9BEEA68D890E936EA36530EE92662
:100A30000D0EEA2251CDEEFF52CDEDFF49CDE9FF7B
:100A4000EA6AE9BEEA68D890E936EA36530EE92642
:100A50000D0EEA22EECFC1FDEFCFC2FDC30EC117CE
:100A6000FF0EC21749CDE9FFEA6AE9BEEA68D890ED
:100A7000E936EA36530EE9260D0EEA22C1CDEEFF25
:100A8000C2CDEDFF036A03500D01C16FC26B100EA2
:100A9000D890C2BF03D0C15D000EC25944E2010E1E
:100AA0000D015115046E056A010E041801E105508F
:100AB00024E10350F36EF46A090EF31801E1F450D7
:100AC00018E0080EF31801E1F45010E0010EF318DD
:100AD00001E1F45008E0F35001E1F45001E00CD0E2
:100AE000010E026F09D0010E036F06D0010E046FD4
:100AF00003D0010E056F00D011D00350F36EF46ADD
:100B0000010EF31801E1F45007E0F35001E1F45055
:100B100001E004D0026B02D0036B00D0D8905233B6
:100B20005133032AB0D74FD249CDE9FFEA6AE9BE73
:100B3000EA68D890E936EA36530EE9260D0EEA2225
:100B400051CDEEFF52CDEDFF0D01010E116F3BD2E5
:100B500049CDE9FFEA6AE9BEEA68D890E936EA36A3
:100B6000530EE9260D0EEA2251CDEEFF52CDEDFFD8
:100B70000D01010E126F27D249CDE9FFEA6AE9BEE5
:100B8000EA68D890E936EA36530EE9260D0EEA22D5
:100B900051CDEEFF52CDEDFF49CDE9FFEA6AE9BE46
:100BA000EA68D890E936EA36530EE9260D0EEA22B5
:100BB000EECFC1FDEFCFC2FDC30EC117FF0EC217AE
:100BC00049CDE9FFEA6AE9BEEA68D890E936EA3633
:100BD000530EE9260D0EEA22C1CDEEFFC2CDEDFF88
:100BE000036A03500D01C16FC26B100ED890C2BFD3
:100BF00003D0C15D000EC25937E2010E0D0151153F
:100C0000046E056A010E041801E105501DE1035050
:100C1000F36EF46A090EF31801E1F45011E0080EC6
:100C2000F31801E1F45009E0010EF31801E1F4506A
:100C300001E009D0010E066F06D0010E076F03D048
:100C4000010E086F00D00BD00350F36EF46A010E52
:100C5000F31801E1F45001E002D0066B00D0D89007
:100C600052335133032ABDD7AED149CDE9FFEA6AE9
:100C7000E9BEEA68D890E936EA36530EE9260D0E49
:100C8000EA2251CDEEFF52CDEDFF0D01010E136FA3
:100C90009AD149CDE9FFEA6AE9BEEA68D890E93617
:100CA000EA36530EE9260D0EEA2251CDEEFF52CD63
:100CB000EDFF0D01010E146F86D149CDE9FFEA6AFF
:100CC000E9BEEA68D890E936EA36530EE9260D0EF9
:100CD000EA2251CDEEFF52CDEDFF49CDE9FFEA6AA0
:100CE000E9BEEA68D890E936EA36530EE9260D0ED9
:100CF000EA22EECFC1FDEFCFC2FDF90EC117FF0E04
:100D0000C21749CDE9FFEA6AE9BEEA68D890E93638
:100D1000EA36530EE9260D0EEA22C1CDEEFFC2CD12
:100D2000EDFF036A03500D01C16FC26B100ED89026
:100D3000C2BF03D0C15D000EC25925E2010E0D01F4
:100D40005115046E056A010E041801E105500CE10D
:100D50000350F36EF46AF35001E1F45001E003D064
:100D6000010E096F00D00AD00350F36EF46AF350FD
:100D700001E1F45001E002D0096B00D0D890523369
:100D80005133032ACFD71FD149CDE9FFEA6AE9BE23
:100D9000EA68D890E936EA36530EE9260D0EEA22C3
:100DA00051CDEEFF52CDEDFF49CDE9FFEA6AE9BE34
:100DB000EA68D890E936EA36530EE9260D0EEA22A3
:100DC000EECFC1FDEFCFC2FDF90EC117FF0EC21766
:100DD00049CDE9FFEA6AE9BEEA68D890E936EA3621
:100DE000530EE9260D0EEA22C1CDEEFFC2CDEDFF76
:100DF000036A03500D01C16FC26B100ED890C2BFC1
:100E000003D0C15D000EC25925E2010E0D0151153E
:100E1000046E056A010E041801E105500CE103504F
:100E2000F36EF46AF35001E1F45001E003D0010ED7
:100E30000A6F00D00AD00350F36EF46AF35001E158
:100E4000F45001E002D00A6B00D0D89052335133F5
:100E5000032ACFD7B8D049CDE9FFEA6AE9BEEA68EC
:100E6000D890E936EA36530EE9260D0EEA2251CD26
:100E7000EEFF52CDEDFF49CDE9FFEA6AE9BEEA682F
:100E8000D890E936EA36530EE9260D0EEA22EECF67
:100E9000C1FDEFCFC2FDFF0EC117C00EC21749CD75
:100EA000E9FFEA6AE9BEEA68D890E936EA36530E05
:100EB000E9260D0EEA22C1CDEEFFC2CDEDFF036A99
:100EC00003500D01C16FC26B100ED890C2BF03D08A
:100ED000C15D000EC25961E2010E0D015115046E93
:100EE000056A010E041801E105502CE10350F36E70
:100EF000F46A040EF31801E1F45020E0030EF31835
:100F000001E1F45018E0020EF31801E1F45010E092
:100F1000010EF31801E1F45008E0F35001E1F45040
:100F200001E00FD0010E0B6F0CD0010E0C6F09D039
:100F3000010E0D6F06D0010E0E6F03D0010E0F6F64
:100F400000D026D00350F36EF46A040EF31801E1CA
:100F5000F4501CE0030EF31801E1F45015E0020E0A
:100F6000F31801E1F4500EE0010EF31801E1F45022
:100F700007E0F35001E1F45001E00AD00B6B08D018
:100F80000C6B06D00D6B04D00E6B02D00F6B00D033
:100F9000D89052335133032A93D715D049CDE9FF66
:100FA000EA6AE9BEEA68D890E936EA36530EE926DD
:100FB0000D0EEA2251CDEEFF52CDEDFF0D01010ED7
:100FC000106F01D000D0010EB0D1AFD14BCDC3FD19
:100FD000C46BC3BFC469C351C41108E144CDC5FD8E
:100FE000C66BC5BFC669C551C61102E1000E01D06E
:100FF000010EC16FC26BC151C21101E18DD149CD4A
:10100000C1FDC26BC1BFC269270EC11901E1C25146
:1010100001E178D1260EC11901E1C25101E16ED181
:10102000250EC11901E1C25101E164D1240EC1199B
:1010300001E1C25101E15AD1230EC11901E1C251AE
:1010400001E150D1220EC11901E1C25101E146D1A5
:10105000210EC11901E1C25101E13CD1200EC1199B
:1010600001E1C25101E132D11F0EC11901E1C251AA
:1010700001E128D11E0EC11901E1C25101E11ED1C9
:101080001D0EC11901E1C25101E114D11C0EC1199B
:1010900001E1C25101E10AD11B0EC11901E1C251A6
:1010A00001E100D11A0EC11901E1C25101E1F6D0EE
:1010B000190EC11901E1C25101E1ECD0180EC1199C
:1010C00001E1C25101E1E2D0170EC11901E1C251A3
:1010D00001E1D8D0160EC11901E1C25101E1CED013
:1010E000150EC11901E1C25101E1C4D0140EC1199C
:1010F00001E1C25101E1BAD0130EC11901E1C2519F
:1011000001E1B0D0120EC11901E1C25101E1A6D036
:10111000110EC11901E1C25101E19CD0100EC1199B
:1011200001E1C25101E192D00F0EC11901E1C2519A
:1011300001E188D00E0EC11901E1C25101E17ED05A
:101140000D0EC11901E1C25175E00C0EC11901E18A
:10115000C2516CE00B0EC11901E1C25163E00A0EED
:10116000C11901E1C2515AE0090EC11901E1C25190
:1011700051E0080EC11901E1C25148E0070EC11942
:1011800001E1C2513FE0060EC11901E1C25136E052
:10119000050EC11901E1C2512DE0040EC11901E192
:1011A000C25124E0030EC11901E1C2511BE0020E3D
:1011B000C11901E1C25112E0010EC11901E1C25190
:1011C00009E0040EE66EE66A6EEC02F042E9818AFE
:1011D000000EABD00D01010E156F99D00D01010E5F
:1011E000166F95D00D01010E176F91D00D01010EF4
:1011F000186F8DD00D01010E196F89D00D01010EF0
:101200001A6F85D00D01010E1B6F81D00D01010EEB
:101210001C6F7DD00D01010E1D6F79D00D01010EE7
:101220001E6F75D00D01010E1F6F71D00D01010EE3
:10123000206F6DD00D01010E216F69D00D01010EDF
:10124000226F65D00D01010E236F61D00D01010EDB
:10125000246F5DD00D01010E256F59D00D01010ED7
:10126000266F55D00D01010E276F51D00D01010ED3
:10127000286F4DD00D01010E296F49D00D01010ECF
:101280002A6F45D00D01010E2B6F41D00D01010ECB
:101290002C6F3DD00D01010E2D6F39D00D01010EC7
:1012A0002E6F35D00D01010E2F6F31D00D01010EC3
:1012B000306F2DD00D01010E316F29D00D01010EBF
:1012C000326F25D00D01010E336F21D00D01010EBB
:1012D000346F1DD00D01010E356F19D00D01010EB7
:1012E000366F15D00D01010E376F11D00D01010EB3
:1012F000386F0DD00D01010E396F09D00D01010EAF
:101300003A6F05D00D01010E3B6F01D000D00D01E9
:10131000010E4A6F0AD009D0030EE66EE66A6EEC43
:1013200002F042E9818A000E00D045E9E7CFD9FFFB
:101330001200D9CFE6FFE1CFD9FF83E9FF0E0014F9
:101340000D013F6F0D01000E0014C16FFF0E01145F
:10135000C26FC2CDC1FDC26BC1CD3EFD41E9E7CF39
:10136000D9FF1200D9CFE6FFE1CFD9FF83E941E8E9
:10137000036A0D01010E3C6F00EBE6FF01EBE6FF97
:10138000D8DF42E99E9A9F8A9D9A3ECDC1FD0D010C
:10139000C26BC1BFC269C1CDE6FFD9EC38F041E9EB
:1013A000000905E10D013C6BCA84000ECCD09E9A69
:1013B0009E9A9F8A9D8A0D01AD6BAE6BCA8443CD08
:1013C000C1FD0D01C26BC1BFC269C151C21111E1A2
:1013D0003DCDC1FDC26BC1BFC269C151C21108E0A0
:1013E0000D013D6BAD6BAE6B3C6BCA84000EABD098
:1013F000E6D7CA949E927B0ECA6E9A0ECC6E0D01F1
:10140000AD6BAE6B436B02EC39F0036ED0CDC1FD1A
:101410000D01C26BC1BFC269C151C2111FE1550E9E
:10142000F36EF46AF350031804E1000E03BEFF0EDE
:10143000F41805E00D013C6BCA84000E84D0818A4B
:10144000090EE66EE66A3AEC39F042E9819A3FCD40
:10145000C1FD0D01C26BC1AF0DD00BD0020EE66E07
:10146000E66A6EEC02F042E90D013C6BCA84000EA4
:101470006AD0C269C1CDE6FFD9EC38F041E9000974
:1014800005E10D013C6BCA84000E5DD0818A9E9AF5
:101490009E9A9F8A9D8A0D01AD6BAE6BCA8443CD27
:1014A000C1FD0D01C26BC1BFC269C151C21111E1C1
:1014B0003DCDC1FDC26BC1BFC269C151C21108E0BF
:1014C0000D013D6BAD6BAE6B3C6BCA84000E3BD027
:1014D000E6D7CA949E927B0ECA6E9A0ECC6E0D0110
:1014E000AD6BAE6B436B02EC39F0036ED0CDC1FD3A
:1014F0000D01C26BC1BFC269C151C21111E1550ECC
:10150000F36EF46AF350031804E1000E03BEFF0EFD
:10151000F41805E00D013C6BCA84000E14D00BD00A
:10152000020EE66EE66A6EEC02F042E90D013C6BDB
:10153000CA84000E08D09E9A9F8A9D8A0D013C6B3A
:10154000CA84010E00D042E9E7CFD9FF1200D9CFFB
:10155000E6FFE1CFD9FF83E942E8036A046A3F0E60
:101560000014036E046AD89001320032D890013220
:101570000032C00E00160F0E01160050031201506B
:10158000041203EBF3FF04EBF4FF00D043E9E7CFD1
:10159000D9FF1200D9CFE6FFE1CFD9FF87E944E8B0
:1015A000076A086A096A0A6A04EBF3FF05EBF4FFAD
:1015B000160EF31801E1F45001E153D3150EF318A0
:1015C00001E1F45001E1D9D2140EF31801E1F45015
:1015D00001E15FD2130EF31801E1F45001E1E5D10E
:1015E000110EF31801E1F45001E16BD1100EF31864
:1015F00001E1F45001E1F4D00F0EF31801E1F450D1
:1016000001E178D0070EF31801E1F45002E0000E7A
:101610009DD3E66AE66AE66A450EE66EE66AE66A23
:10162000400EE66EE66E00EBE6FF01EBE6FF02EB36
:10163000E6FF03EBE6FFF2EC22F0A0EC21F0E5522E
:10164000E5CFC4FDE5CFC3FDE5CFC2FDE7CFC1FDCA
:101650000D01C151076EC251086EC351096EC451CC
:101660000A6E660EE66EE66EE66E3F0EE66EE66AA1
:10167000E66AA00EE66E400EE66E07EBE6FF08EBAC
:10168000E6FF09EBE6FF0AEBE6FFA0EC21F0FDEC3C
:1016900021F00D01C36FC46BC351C41120E1660E6C
:1016A000E66EE66EE66E3F0EE66E07EBE6FF08EBD3
:1016B000E6FF09EBE6FF0AEBE6FFE66AE66AA00E44
:1016C000E66E400EE66EA0EC21F0FDEC21F00D017F
:1016D000C56FC66BC551C61102E1000E01D0010EE7
:1016E000C16FC26BC151C21103E0000E2FD32ED3C4
:1016F000010E2CD37B0EE66E140EE66E2E0EE66EF9
:10170000450EE66EE66AE66A400EE66EE66E00EBB1
:10171000E6FF01EBE6FF02EBE6FF03EBE6FFF2EC90
:1017200022F0A0EC21F0E552E5CFC4FDE5CFC3FDEA
:10173000E5CFC2FDE7CFC1FD0D01C151076EC2511A
:10174000086EC351096EC4510A6E660EE66EE66EEF
:10175000E66E3F0EE66E330EE66EE66E530EE66EF6
:10176000400EE66E07EBE6FF08EBE6FF09EBE6FF4F
:101770000AEBE6FFA0EC21F0FDEC21F00D01C36FB8
:10178000C46BC351C41121E1660EE66EE66EE66ECF
:101790003F0EE66E07EBE6FF08EBE6FF09EBE6FF20
:1017A0000AEBE6FF330EE66EE66E530EE66E400E73
:1017B000E66EA0EC21F0FDEC21F00D01C56FC66BCB
:1017C000C551C61102E1000E01D0010EC16FC26BFE
:1017D000C151C21103E0000EB9D2B8D2010EB6D287
:1017E000E66AE66AE66A450EE66EE66AE66A400E74
:1017F000E66EE66E00EBE6FF01EBE6FF02EBE6FFCE
:1018000003EBE6FFF2EC22F0A0EC21F0E552E5CF8D
:10181000C4FDE5CFC3FDE5CFC2FDE7CFC1FD0D019E
:10182000C151076EC251086EC351096EC4510A6E90
:10183000660EE66EE66EE66E3F0EE66EE66AE66AF7
:10184000A00EE66E400EE66E07EBE6FF08EBE6FF45
:1018500009EBE6FF0AEBE6FFA0EC21F0FDEC21F03E
:101860000D01C36FC46BC351C41120E1660EE66E57
:10187000E66EE66E3F0EE66E07EBE6FF08EBE6FF70
:1018800009EBE6FF0AEBE6FFE66AE66AA00EE66E03
:10189000400EE66EA0EC21F0FDEC21F00D01C56FCD
:1018A000C66BC551C61102E1000E01D0010EC16F19
:1018B000C26BC151C21103E0000E48D247D2010EE3
:1018C00045D2600EE66EE50EE66E500EE66E440EF4
:1018D000E66EE66AE66A400EE66EE66E00EBE6FF4E
:1018E00001EBE6FF02EBE6FF03EBE6FFF2EC22F092
:1018F000A0EC21F0E552E5CFC4FDE5CFC3FDE5CF77
:10190000C2FDE7CFC1FD0D01C151076EC251086E86
:10191000C351096EC4510A6E660EE66EE66EE66E3F
:101920003F0EE66EE66AE66A400EE66E410EE66E31
:1019300007EBE6FF08EBE6FF09EBE6FF0AEBE6FF45
:10194000A0EC21F0FDEC21F00D01C36FC46BC3517D
:10195000C41120E1660EE66EE66EE66E3F0EE66EA0
:1019600007EBE6FF08EBE6FF09EBE6FF0AEBE6FF15
:10197000E66AE66A400EE66E410EE66EA0EC21F0E5
:10198000FDEC21F00D01C56FC66BC551C61102E11A
:10199000000E01D0010EC16FC26BC151C21103E034
:1019A000000ED4D1D3D1010ED1D13D0EE66E0A0E78
:1019B000E66E570EE66E440EE66EE66AE66A400E86
:1019C000E66EE66E00EBE6FF01EBE6FF02EBE6FFFC
:1019D00003EBE6FFF2EC22F0A0EC21F0E552E5CFBC
:1019E000C4FDE5CFC3FDE5CFC2FDE7CFC1FD0D01CD
:1019F000C151076EC251086EC351096EC4510A6EBF
:101A0000660EE66EE66EE66E3F0EE66EE66AE66A25
:101A1000400EE66E410EE66E07EBE6FF08EBE6FFD2
:101A200009EBE6FF0AEBE6FFA0EC21F0FDEC21F06C
:101A30000D01C36FC46BC351C41120E1660EE66E85
:101A4000E66EE66E3F0EE66E07EBE6FF08EBE6FF9E
:101A500009EBE6FF0AEBE6FFE66AE66A400EE66E91
:101A6000410EE66EA0EC21F0FDEC21F00D01C56FFA
:101A7000C66BC551C61102E1000E01D0010EC16F47
:101A8000C26BC151C21103E0000E60D15FD1010EE3
:101A90005DD1AE0EE66E470EE66EE10EE66E430ECB
:101AA000E66EE66AE66A400EE66EE66E00EBE6FF7C
:101AB00001EBE6FF02EBE6FF03EBE6FFF2EC22F0C0
:101AC000A0EC21F0E552E5CFC4FDE5CFC3FDE5CFA5
:101AD000C2FDE7CFC1FD0D01C151076EC251086EB5
:101AE000C351096EC4510A6E660EE66EE66EE66E6E
:101AF0003F0EE66EE66AE66AC00EE66E410EE66EE0
:101B000007EBE6FF08EBE6FF09EBE6FF0AEBE6FF73
:101B1000A0EC21F0FDEC21F00D01C36FC46BC351AB
:101B2000C41120E1660EE66EE66EE66E3F0EE66ECE
:101B300007EBE6FF08EBE6FF09EBE6FF0AEBE6FF43
:101B4000E66AE66AC00EE66E410EE66EA0EC21F093
:101B5000FDEC21F00D01C56FC66BC551C61102E148
:101B6000000E01D0010EC16FC26BC151C21103E062
:101B7000000EECD0EBD0010EE9D08D0EE66E7A0EA1
:101B8000E66E880EE66E420EE66EE66AE66A400E85
:101B9000E66EE66E00EBE6FF01EBE6FF02EBE6FF2A
:101BA00003EBE6FFF2EC22F0A0EC21F0E552E5CFEA
:101BB000C4FDE5CFC3FDE5CFC2FDE7CFC1FD0D01FB
:101BC000C151076EC251086EC351096EC4510A6EED
:101BD000660EE66EE66EE66E3F0EE66EE66AE66A54
:101BE000160EE66E430EE66E07EBE6FF08EBE6FF29
:101BF00009EBE6FF0AEBE6FFA0EC21F0FDEC21F09B
:101C00000D01C36FC46BC351C41120E1660EE66EB3
:101C1000E66EE66E3F0EE66E07EBE6FF08EBE6FFCC
:101C200009EBE6FF0AEBE6FFE66AE66A160EE66EE9
:101C3000430EE66EA0EC21F0FDEC21F00D01C56F26
:101C4000C66BC551C61102E1000E01D0010EC16F75
:101C5000C26BC151C21103E0000E78D077D0010EE3
:101C600075D0CD0EE66ECC0EE66E4C0EE66E430ED3
:101C7000E66EE66AE66A400EE66EE66E00EBE6FFAA
:101C800001EBE6FF02EBE6FF03EBE6FFF2EC22F0EE
:101C9000A0EC21F0E552E5CFC4FDE5CFC3FDE5CFD3
:101CA000C2FDE7CFC1FD0D01C151076EC251086EE3
:101CB000C351096EC4510A6E660EE66EE66EE66E9C
:101CC0003F0EE66EE66AE66A400EE66E420EE66E8D
:101CD00007EBE6FF08EBE6FF09EBE6FF0AEBE6FFA2
:101CE000A0EC21F0FDEC21F00D01C36FC46BC351DA
:101CF000C41120E1660EE66EE66EE66E3F0EE66EFD
:101D000007EBE6FF08EBE6FF09EBE6FF0AEBE6FF71
:101D1000E66AE66A400EE66E420EE66EA0EC21F040
:101D2000FDEC21F00D01C56FC66BC551C61102E176
:101D3000000E01D0010EC16FC26BC151C21103E090
:101D4000000E04D003D0010E01D000D045E9E7CF4A
:101D5000D9FF1200D9CFE6FFE1CFD9FF83E900EB2D
:101D6000E6FFF0EC29F041E997EC29F0000908E1E1
:101D70000D0EE66EE66A6EEC02F042E9000E18D037
:101D800000EBE6FFFCEC2AF041E9F3CFE6FFF4CFED
:101D9000E6FFA6EC1FF000EBE6FF01EBE6FFCAEC66
:101DA0000AF046E9000902E1000E02D0010E00D05F
:101DB00041E9E7CFD9FF1200D9CFE6FFE1CFD9FF44
:101DC00087E946E8076A086A096A0A6A0B6A0C6AC0
:101DD0000D01010E466F04EBE6FFF0EC29F041E93E
:101DE00097EC29F0000906E10D0EE66EE66A6EEC4E
:101DF00002F042E904EBE6FFFCEC2AF041E9F35083
:101E00000B6EF4500C6E00EBE6FF01EBE6FF02EB0D
:101E1000E6FF03EBE6FFE66AE66A800EE66E450E35
:101E2000E66EF2EC22F0030EE66EE66A0BEBE6FFDE
:101E30000CEBE6FF6DEC22F0A6EC1FF0A0EC21F01D
:101E4000E552E5CFC4FDE5CFC3FDE5CFC2FDE7CF49
:101E5000C1FD0D01C151076EC251086EC351096E1B
:101E6000C4510A6EE66AE66A7A0EE66E440EE66EC3
:101E700007EBE6FF08EBE6FF09EBE6FF0AEBE6FF00
:101E8000F2EC22F0B0EC20F0B2EC09F042E90009EB
:101E900006E1060EE66EE66A6EEC02F042E90D011E
:101EA000466B47E9E7CFD9FF1200D9CFE6FFE1CF74
:101EB000D9FF81E94EE8016A026A036A046A056A89
:101EC000066A076A086A096A0A6A0B6A0C6A0D6A76
:101ED000E0EC36F0EEEC01F018EC30F0010EE66EBE
:101EE000BBEC29F041E9C18ECA840E6A43CDC1FD25
:101EF0000D01C26BC1BFC269C151C21122E00D0107
:101F0000436B02EC39F00E6ED0CDC1FD0D01C26BFA
:101F1000C1BFC269C151C2110BE10EEBC1FDC26B61
:101F2000C1BFC269C1CDE6FF62EC03F041E906D052
:101F3000020EE66EE66A6EEC02F042E99E9A9F8A15
:101F40009D8A46CDC1FD0D01C26BC1BFC269C151A1
:101F5000C2116BE00F0EE66EE66AFCDE42E9000994
:101F600006E10E0EE66EE66A6EEC02F042E9100E35
:101F7000E66EE66AEFDE42E9000906E10F0EE66E64
:101F8000E66A6EEC02F042E9070EE66EE66AE2DE11
:101F900042E9000906E1100EE66EE66A6EEC02F018
:101FA00042E9110EE66EE66AD5DE42E9000906E175
:101FB000110EE66EE66A6EEC02F042E9130EE66E72
:101FC000E66AC8DE42E9000906E1120EE66EE66A3C
:101FD0006EEC02F042E9140EE66EE66ABBDE42E900
:101FE000000906E1130EE66EE66A6EEC02F042E9C5
:101FF000150EE66EE66AAEDE42E9000906E1140E51
:10200000E66EE66A6EEC02F042E9160EE66EE66AED
:10201000A1DE42E9000906E1150EE66EE66A6EEC05
:1020200002F042E90D01466BCA844BCDC1FD0D01A2
:10203000C26BC1BFC269C151C21101E1EAD20D0137
:102040004B6B00CDC1FD0D01C26BC1BFC269C15157
:10205000C21107E0010EE66EE66A5FEC2CF042E981
:1020600005D0E66AE66A5FEC2CF042E901CDC1FDDD
:102070000D01C26BC1BFC269C151C21107E0010E9F
:10208000E66EE66E5FEC2CF042E906D0E66A010EE1
:10209000E66E5FEC2CF042E902CDC1FD0D01C26B92
:1020A000C1BFC269C151C21116E0010EE66E080E31
:1020B000E66E5FEC2CF042E9010EE66E090EE66E6C
:1020C0005FEC2CF042E9010EE66E070EE66E5FEC67
:1020D0002CF042E912D0E66A070EE66E5FEC2CF0B7
:1020E00042E9E66A080EE66E5FEC2CF042E9E66A29
:1020F000090EE66E5FEC2CF042E903CDC1FD0D0147
:10210000C26BC1BFC269C151C21104E085960E0104
:10211000E48903D085860E01E49904CDC1FD0D014B
:10212000C26BC1BFC269C151C21119E00D01046B7C
:1021300081820E01E79B030EE66EE66A53EC39F0EE
:1021400042E981920E01E78B070EE66EE66A53ECD8
:1021500039F042E9C30E0D016117FE0E621705CD7D
:10216000C1FD0D01C26BC1BFC269C151C21107E0FF
:102170000D01056B8894C30E6117FD0E621706CD25
:10218000C1FD0D01C26BC1BFC269C151C21104E0E2
:102190000E01E795E78303D00E01E785E79307CDAE
:1021A000C1FD0D01C26BC1BFC269C151C21117E0AF
:1021B0000D01076B848C849E030EE66EE66A53EC79
:1021C00039F042E9849C848E070EE66EE66A53EC91
:1021D00039F042E9C30E0D016B17FE0E6C1708CDE6
:1021E000C1FD0D01C26BC1BFC269C151C21107E07F
:1021F0000D01086B8894C30E6B17FD0E6C1709CD8B
:10220000C1FD0D01C26BC1BFC269C151C21102E063
:10221000848601D084960ACDC1FDC26BC1BFC2695C
:10222000C151C21102E0848401D084940BCDC1FD60
:10223000C26BC1BFC269C151C21108E0010EE66E96
:10224000040EE66E5FEC2CF042E906D0E66A040E5E
:10225000E66E5FEC2CF042E90CCDC1FD0D01C26BC6
:10226000C1BFC269C151C21108E0010EE66E060E7F
:10227000E66E5FEC2CF042E906D0E66A060EE66EEA
:102280005FEC2CF042E90DCDC1FD0D01C26BC1BF69
:10229000C269C151C21119E0120EE66E0A0EE66E55
:1022A000EBEC24F042E9016E01EBC1FD0D01C26BC4
:1022B000C1BFC269100EC111E66E120EE66E0A0EA3
:1022C000E66E60EC24F043E918D0120EE66E0A0EBA
:1022D000E66EEBEC24F042E9016E01EBC1FD0D016D
:1022E000C26BC1BFC269EF0EC115E66E120EE66E7B
:1022F0000A0EE66E60EC24F043E90ECDC1FD0D013F
:10230000C26BC1BFC269C151C21119E0120EE66EA3
:102310000A0EE66EEBEC24F042E9016E01EBC1FD22
:102320000D01C26BC1BFC269200EC111E66E120E53
:10233000E66E0A0EE66E60EC24F043E918D0120E49
:10234000E66E0A0EE66EEBEC24F042E9016E01EB5C
:10235000C1FD0D01C26BC1BFC269DF0EC115E66EC2
:10236000120EE66E0A0EE66E60EC24F043E90FCD25
:10237000C1FD0D01C26BC1BFC269C151C21119E0DB
:10238000130EE66E0A0EE66EEBEC24F042E9016EE7
:1023900001EBC1FD0D01C26BC1BFC269200EC111AD
:1023A000E66E130EE66E0A0EE66E60EC24F043E96C
:1023B00018D0130EE66E0A0EE66EEBEC24F042E93E
:1023C000016E01EBC1FD0D01C26BC1BFC269DF0E21
:1023D000C115E66E130EE66E0A0EE66E60EC24F092
:1023E00043E910CDC1FD0D01C26BC1BFC269C1512E
:1023F000C2111CE00D01106B97CDE6FF98CDE6FFF2
:10240000A7EC0AF042E9F350026EF450036E02EBBF
:10241000E6FF03EBE6FF62EC36F042E9000906E175
:10242000050EE66EE66A6EEC02F042E911CDC1FDE2
:102430000D01C26BC1BFC269C151C2112CE00D01B7
:10244000116B63CDE6FF64CDE6FFA7EC0AF042E92D
:10245000F3CFA5FDF4CFA6FDE66AE80EE66E030E07
:10246000E66EE66AE66A63CDC1FD64CDC2FD0D018C
:10247000C36BC46BC2AF02D0C369C469C1CDE6FFF0
:10248000C2CDE6FFC3CDE6FFC4CDE6FFA1EC22F04E
:10249000B2EC17F045E912CDC1FD0D01C26BC1BF11
:1024A000C269C151C21139E00D01126B67CDE6FF5F
:1024B00068CDE6FFA7EC0AF042E9F3CFA9FDF4CF1F
:1024C000AAFD67CDE6FF68CDE6FFA5CDE6FFA6CD68
:1024D000E6FFF7EC17F044E9F3CFA9FDF4CFAAFD2E
:1024E000E70EE66EFB0EE66EF20EE66E410EE66E4F
:1024F000A9CDE6FFAACDE6FFA6EC1FF0A0EC21F0E7
:10250000B0EC20F0E552E5CFAAFDE7CFA9FDE66AE1
:10251000A9CDE6FF25EC32F042E913CDC1FD0D0156
:10252000C26BC1BFC269C151C2112DE00D01136B55
:102530006DCDE6FF6ECDE6FFA7EC0AF042E9F3CFE2
:10254000A7FDF4CFA8FD010EE66EE80EE66E030EC1
:10255000E66EE66AE66A6DCDC1FD6ECDC2FD0D0187
:10256000C36BC46BC2AF02D0C369C469C1CDE6FFFF
:10257000C2CDE6FFC3CDE6FFC4CDE6FFA1EC22F05D
:10258000B2EC17F045E914CDC1FD0D01C26BC1BF1E
:10259000C269C151C2113AE00D01146B71CDE6FF61
:1025A00072CDE6FFA7EC0AF042E9F3CFABFDF4CF22
:1025B000ACFD71CDE6FF72CDE6FFA7CDE6FFA8CD5D
:1025C000E6FFF7EC17F044E9F3CFABFDF4CFACFD39
:1025D000E70EE66EFB0EE66EF20EE66E410EE66E5E
:1025E000ABCDE6FFACCDE6FFA6EC1FF0A0EC21F0F2
:1025F000B0EC20F0E552E5CFACFDE7CFABFD010E2E
:10260000E66EABCDE6FF25EC32F042E93BEC02F0A2
:10261000818A15CDC1FD0D01C26BC1BFC269C15117
:10262000C21111E00D01156B55CDE6FF56CDE6FF49
:10263000B2EC09F042E9000906E1060EE66EE66A30
:102640006EEC02F042E916CDC1FD0D01C26BC1BFB7
:10265000C269C151C21110E00D01166B7B0EE66E0E
:10266000140EE66E2E0EE66E3F0EE66E0F0EE66E52
:10267000E66ADCEC0EF046E917CDC1FD0D01C26B38
:10268000C1BFC269C151C2110DE00D01176BE66AED
:10269000E66AE66A3F0EE66E100EE66EE66ADCEC6F
:1026A0000EF046E918CDC1FD0D01C26BC1BFC26974
:1026B000C151C21110E00D01186B600EE66EE50EFF
:1026C000E66E500EE66E3E0EE66E110EE66EE66AA1
:1026D000DCEC0EF046E919CDC1FD0D01C26BC1BFA6
:1026E000C269C151C21110E00D01196BAE0EE66E48
:1026F000470EE66EE10EE66E3D0EE66E140EE66ED9
:10270000E66ADCEC0EF046E91ACDC1FD0D01C26BA4
:10271000C1BFC269C151C21110E00D011A6BCD0ECB
:10272000E66ECC0EE66E4C0EE66E3D0EE66E160EB6
:10273000E66EE66ADCEC0EF046E91BCDC1FD0D014C
:10274000C26BC1BFC269C151C21101E178D00D0194
:102750001B6B6151066E6251076E120EE66E090E1A
:10276000E66EEBEC24F042E9016E01EBC1FD0D01D8
:10277000C26BC1BFC2690C0EC115016E01EBC1FD78
:10278000C26BC1BFC269080EC117000EC217C1518A
:102790000612C251071201EBC1FDC26BC1BFC26973
:1027A000040EC117000EC217D890C137C237D89097
:1027B000C137C237D890C137C237C151016E01EB62
:1027C000C1FDC26BC1BFC269C1510612C25107121D
:1027D000130EE66EFCEC2AF041E9F350086EF4505B
:1027E000096E093404E2085040080C0E095408E24E
:1027F000D890095004E6F90E085C0E0E095802E361
:10280000000E01D0010E0D01C16FC26BC151C2118A
:1028100005E0EF0E0616FF0E071602D0100E061288
:1028200006EBE6FF07EBE6FFB2EC09F042E9000930
:1028300006E1060EE66EE66A6EEC02F042E91CCD99
:10284000C1FD0D01C26BC1BFC269C151C21111E00E
:102850000D011C6BA5CDE6FFA6CDE6FFB2EC09F09D
:1028600042E9000906E1060EE66EE66A6EEC02F049
:1028700042E91DCDC1FD0D01C26BC1BFC269C1518D
:10288000C21161E00D011D6BE66A88EC18F041E9A8
:10289000C7CDC1FDC8CDC2FDC9CDC3FDCACDC4FDE4
:1028A0000D01C1510A6EC2510B6EC3510C6EC45161
:1028B0000D6EE66AE80EE66E030EE66EE66AE66AFE
:1028C0000AEBE6FF0BEBE6FF0CEBE6FF0DEBE6FF9A
:1028D0004EEC21F085EC19F045E900092EE0E80EF8
:1028E000E66E030EE66EE66AE66A0AEBE6FF0BEBBF
:1028F000E6FF0CEBE6FF0DEBE6FF4EEC21F0E552B8
:10290000E5CFC4FDE5CFC3FDE5CFC2FDE7CFC1FDF7
:102910000D01C151066EC251076E06EBE6FF07EBD3
:10292000E6FFB2EC09F042E9000906E1060EE66EA8
:10293000E66A6EEC02F042E906D0070EE66EE66A41
:102940006EEC02F042E91ECDC1FD0D01C26BC1BFAC
:10295000C269C151C21111E00D011E6B67CDE6FFC6
:1029600068CDE6FFB2EC09F042E9000906E1060E87
:10297000E66EE66A6EEC02F042E91FCDC1FD0D0184
:10298000C26BC1BFC269C151C21135E00D011F6BDD
:10299000E66AE66AF9EC1AF042E9F350016EE66A7B
:1029A00001EBC1FD0D01C26BC1BFC269C1CDE6FF24
:1029B000C2CDE6FF0EEC1EF043E9000916E001EB84
:1029C000C1FD0D01C26BC1BFC269C1CDE6FFC2CD61
:1029D000E6FFB2EC09F042E9000906E1060EE66EF8
:1029E000E66A6EEC02F042E906D0080EE66EE66A90
:1029F0006EEC02F042E920CDC1FD0D01C26BC1BFFA
:102A0000C269C151C21101E178D00D01206B6B5137
:102A1000066E6C51076E120EE66E090EE66EEBEC5A
:102A200024F042E9016E01EBC1FD0D01C26BC1BF93
:102A3000C2690C0EC115016E01EBC1FDC26BC1BFB5
:102A4000C269080EC117000EC217C1510612C25149
:102A5000071201EBC1FDC26BC1BFC269040EC117F1
:102A6000000EC217D890C137C237D890C137C237CD
:102A7000D890C137C237C151016E01EBC1FDC26BA5
:102A8000C1BFC269C1510612C2510712130EE66ED0
:102A9000FCEC2AF041E9F350086EF450096E093459
:102AA00004E2085040080C0E095408E2D89009507E
:102AB00004E6F90E085C0E0E095802E3000E01D080
:102AC000010E0D01C16FC26BC151C21105E0EF0EC5
:102AD0000616FF0E071602D0100E061206EBE6FFD2
:102AE00007EBE6FFB2EC09F042E9000906E1060E49
:102AF000E66EE66A6EEC02F042E921CDC1FD0D0101
:102B0000C26BC1BFC269C151C21111E00D01216B7D
:102B1000A7CDE6FFA8CDE6FFB2EC09F042E9000937
:102B200006E1060EE66EE66A6EEC02F042E922CDA0
:102B3000C1FD0D01C26BC1BFC269C151C21163E0C9
:102B40000D01226B010EE66E88EC18F041E9C7CD4D
:102B5000C1FDC8CDC2FDC9CDC3FDCACDC4FD0D01A7
:102B6000C1510A6EC2510B6EC3510C6EC4510D6E31
:102B7000010EE66EE80EE66E030EE66EE66AE66AA3
:102B80000AEBE6FF0BEBE6FF0CEBE6FF0DEBE6FFD7
:102B90004EEC21F085EC19F045E900092EE0E80E35
:102BA000E66E030EE66EE66AE66A0AEBE6FF0BEBFC
:102BB000E6FF0CEBE6FF0DEBE6FF4EEC21F0E552F5
:102BC000E5CFC4FDE5CFC3FDE5CFC2FDE7CFC1FD35
:102BD0000D01C151066EC251076E06EBE6FF07EB11
:102BE000E6FFB2EC09F042E9000906E1060EE66EE6
:102BF000E66A6EEC02F042E906D0090EE66EE66A7D
:102C00006EEC02F042E923CDC1FD0D01C26BC1BFE4
:102C1000C269C151C21111E00D01236B71CDE6FFF4
:102C200072CDE6FFB2EC09F042E9000906E1060EBA
:102C3000E66EE66A6EEC02F042E924CDC1FD0D01BC
:102C4000C26BC1BFC269C151C21137E00D01246B13
:102C5000E66A010EE66EF9EC1AF042E9F350016EF5
:102C6000010EE66E01EBC1FD0D01C26BC1BFC26971
:102C7000C1CDE6FFC2CDE6FF0EEC1EF043E9000930
:102C800016E001EBC1FD0D01C26BC1BFC269C1CD30
:102C9000E6FFC2CDE6FFB2EC09F042E9000906E129
:102CA000060EE66EE66A6EEC02F042E906D00A0E07
:102CB000E66EE66A6EEC02F042E925CDC1FD0D013B
:102CC000C26BC1BFC269C151C21102E00D01256BC7
:102CD00026CDC1FD0D01C26BC1BFC269C151C21178
:102CE00002E00D01266B27CDC1FD0D01C26BC1BFF6
:102CF000C269C151C21102E00D01276B28CDC1FD8F
:102D00000D01C26BC1BFC269C151C21102E00D0108
:102D1000286B29CDC1FD0D01C26BC1BFC269C15174
:102D2000C21102E00D01296B2ACDC1FD0D01C26B5C
:102D3000C1BFC269C151C21102E00D012A6B2BCD86
:102D4000C1FD0D01C26BC1BFC269C151C21102E018
:102D50000D012B6B2CCDC1FD0D01C26BC1BFC26932
:102D6000C151C21102E00D012C6B2DCDC1FD0D0131
:102D7000C26BC1BFC269C151C21102E00D012D6B0E
:102D80002ECDC1FD0D01C26BC1BFC269C151C211BF
:102D900002E00D012E6B2FCDC1FD0D01C26BC1BF35
:102DA000C269C151C21102E00D012F6B30CDC1FDCE
:102DB0000D01C26BC1BFC269C151C21102E00D0158
:102DC000306B31CDC1FD0D01C26BC1BFC269C151B4
:102DD000C21102E00D01316B32CDC1FD0D01C26B9C
:102DE000C1BFC269C151C21102E00D01326B33CDC6
:102DF000C1FD0D01C26BC1BFC269C151C21102E068
:102E00000D01336B34CDC1FD0D01C26BC1BFC26971
:102E1000C151C21102E00D01346B35CDC1FD0D0170
:102E2000C26BC1BFC269C151C21102E00D01356B55
:102E300036CDC1FD0D01C26BC1BFC269C151C21106
:102E400011E00D01366B99CDE6FF9ACDE6FFB2ECAD
:102E500009F042E9000906E1060EE66EE66A6EEC4C
:102E600002F042E937CDC1FD0D01C26BC1BFC2699D
:102E7000C151C2110FE00D01376B330EE66EE66EE5
:102E8000B30EE66E3E0EE66E050EE66EE66ADCEC0E
:102E90000EF046E938CDC1FD0D01C26BC1BFC2695C
:102EA000C151C21111E00D01386B4DCDE6FF4ECD81
:102EB000E6FFB2EC09F042E9000906E1060EE66E13
:102EC000E66A6EEC02F042E93BCDC1FD0D01C26B3A
:102ED000C1BFC269C151C21111E00D013B6B4FCDA1
:102EE000E6FF50CDE6FFB2EC09F042E9000906E149
:102EF000060EE66EE66A6EEC02F042E939CDC1FDDF
:102F00000D01C26BC1BFC269C151C2111AE00D01EE
:102F1000396B010E066E076A86EB07F0066A061229
:102F2000000E071206EBE6FF07EBE6FFB2EC09F036
:102F300042E9000906E1060EE66EE66A6EEC02F072
:102F400042E93ACDC1FD0D01C26BC1BFC269C15199
:102F5000C21102E00D013A6B75EF0FF04FE9E7CFB8
:042F6000D9FF120083
:0C2F6400D9CFE6FFE1CFD9FF86E9B30E1C
:102F7000E66EB50EE66EBE0EE66E3C0EE66E01EB3C
:102F8000E6FF02EBE6FF03EBE6FF04EBE6FF24ECD3
:102F900020F0A0EC21F0F3EC20F0E552E5CFC4FDE9
:102FA000E5CFC3FDE5CFC2FDE7CFC1FD0D01C151A6
:102FB000016EC251026EC351036EC451046E00EB28
:102FC000C1FDC26BC1BFC269C1CDE6FFE66AE66A58
:102FD00001EBE6FF02EBE6FF03EBE6FF04EBE6FFA7
:102FE000FBEC32F047E941E9E7CFD9FF1200D9CF36
:102FF000E6FFE1CFD9FF85E942E8056A066AD89085
:10300000035004E6D00E025C070E035807E30334B6
:1030100004E20250CA08080E035402E2000E01D076
:10302000010E0D01C36FC46BC351C41107E001341D
:1030300004E20050E808030E015402E3000E01D040
:10304000010EC16FC26BC151C21118E0CD0EE66E08
:10305000CC0EE66E8C0EE66E3F0EE66E00EBE6FFE3
:1030600001EBE6FFA6EC1FF0F2EC22F0B0EC20F052
:10307000E552E550066EE750056E41D0033404E298
:103080000250CA08080E035407E2033404E2025057
:10309000C408090E035402E2000E01D0010EC36FF2
:1030A000C46BC351C41107E0013404E20050E808C6
:1030B000030E015402E3000E01D0010EC16FC26B7A
:1030C000C151C21118E07B0EE66E140EE66E8E0E34
:1030D000E66E3F0EE66E00EBE6FF01EBE6FFA6ECC8
:1030E0001FF0F2EC22F0B0EC20F0E552E550066E55
:1030F000E750056E04D080EB05F081EB06F005EBA0
:10310000F3FF06EBF4FF00D043E9E7CFD9FF12004D
:10311000D9CFE6FFE1CFD9FF82E94AE8026A036A24
:10312000046A056A066A076A086A096A0A6A0B6A13
:10313000066A076A0A0ED89007BE03D0065C000E26
:10314000075801E37BD0320EB16ED80EB36EEF0E8E
:10315000B26E00EBC1FD0D01C26BC1BFC269C151AE
:10316000C21105E1280ED56ED76AD66A04D0860E44
:10317000CD6ECF6ACE6AB18000EBC1FDC26BC1BF1C
:10318000C269C151C21103E1A80ED56E02D0870EEB
:10319000CD6ED1CDC1FDC26BC1BFC269C151C211DB
:1031A00001E1F7D70D01D16B00EBC1FD0D01C26B41
:1031B000C1BFC269C151C21105E1D650026ED750DC
:1031C000036E04D0CE50026ECF50036E03EBC1FDF0
:1031D000C26BC1BFC269C1CDC2FDC16B02EBC3FDF1
:1031E000C46BC3BFC469C351C125046EC251C4219D
:1031F000056E04EBC1FD05EBC2FDC36BC46BC2AF32
:1032000002D0C369C469D950080FE96EDACFEAFF6A
:10321000EE50C127EE50C223EE50C323EE50C4231C
:10322000C151086EC251096EC3510A6EC4510B6E72
:10323000046A056A062A000E07227CD7320EB16E98
:10324000D80EB36EEF0EB26E00EBC1FD0D01C26B76
:10325000C1BFC269C151C21105E1280ED56ED76A3E
:10326000D66A04D0860ECD6ECF6ACE6A0A0EE66E9E
:10327000E66AE66AE66A08EBE6FF09EBE6FF0AEBB8
:10328000E6FF0BEBE6FF4EEC21F0E552E5CFC4FD87
:10329000E5CFC3FDE5CFC2FDE7CFC1FD0D01C151B3
:1032A000086EC251096EC3510A6EC4510B6EC80E2E
:1032B000E66EE66AE66AE66A08EBE6FF09EBE6FF19
:1032C0000AEBE6FF0BEBE6FFA1EC22F0E552E5CFBF
:1032D000C4FDE5CFC3FDE5CFC2FDE7CFC1FD0D01C4
:1032E000C151086EC251096EC3510A6EC4510B6EB2
:1032F00008EBC7FD09EBC8FD0AEBC9FD0BEBCAFDE6
:1033000000D04BE9E7CFD9FF1200D9CFE6FFE1CFDC
:10331000D9FF86E948E8066A076A086A096A0A6AFC
:103320000B6A0C6A0D6A00EBC1FD0D01C26BC1BFD7
:10333000C269C151C21149E0A7CDE6FFA8CDE6FFA1
:10334000A6EC1FF001EBE6FF02EBE6FF03EBE6FF66
:1033500004EBE6FF24EC20F0A0EC21F0E552E5CFF1
:10336000C4FDE5CFC3FDE5CFC2FDE7CFC1FD0D0133
:10337000C151066EC251076EC351086EC451096E29
:1033800001EBE6FF02EBE6FF03EBE6FF04EBE6FFF3
:1033900024EC20F0A7CDE6FFA8CDE6FFA6EC1FF0B9
:1033A000A0EC21F0E552E5CFC4FDE5CFC3FDE5CFAC
:1033B000C2FDE7CFC1FD0D01C1510A6EC2510B6EB6
:1033C000C3510C6EC4510D6E48D0A5CDE6FFA6CDFD
:1033D000E6FFA6EC1FF001EBE6FF02EBE6FF03EBD6
:1033E000E6FF04EBE6FF24EC20F0A0EC21F0E55230
:1033F000E5CFC4FDE5CFC3FDE5CFC2FDE7CFC1FDFD
:103400000D01C151066EC251076EC351086EC45101
:10341000096E01EBE6FF02EBE6FF03EBE6FF04EBD0
:10342000E6FF24EC20F0A5CDE6FFA6CDE6FFA6EC56
:103430001FF0A0EC21F0E552E5CFC4FDE5CFC3FDC0
:10344000E5CFC2FDE7CFC1FD0D01C1510A6EC251EA
:103450000B6EC3510C6EC4510D6E660EE66EE66EB9
:10346000E66E3F0EE66E06EBE6FF07EBE6FF08EBC7
:10347000E6FF09EBE6FFFDEC21F00D01C36FC46B25
:10348000C351C41118E1660EE66EE66EE66E3F0E9D
:10349000E66E0AEBE6FF0BEBE6FF0CEBE6FF0DEB4F
:1034A000E6FFFDEC21F00D01C56FC66BC551C611DD
:1034B00002E1000E01D0010EC16FC26BC151C211F9
:1034C00003E0000E03D002D0010E00D049E9E7CF9F
:1034D000D9FF1200D9CFE6FFE1CFD9FF83E942E857
:1034E000036A046A00EBC1FD0D01C26BC1BFC26972
:1034F000C151C21114E101EBC1FDC26BC1BFC26970
:10350000C151C21106E1080EE66EF0EC29F041E966
:1035100005D0090EE66EF0EC29F041E913D001EB7D
:10352000C1FDC26BC1BFC269C151C21106E10A0E21
:10353000E66EF0EC29F041E905D00B0EE66EF0ECFA
:1035400029F041E997EC29F000090AE10D0EE66E39
:10355000E66A6EEC02F042E9010EF36EF46A45D0C1
:1035600000EBC1FD0D01C26BC1BFC269C151C211E7
:103570001CE101EBC1FDC26BC1BFC269C151C211E7
:103580000AE1080EE66EFCEC2AF041E9F350036E06
:10359000F450046E09D0080EE66EFCEC2AF041E906
:1035A000F350036EF450046E1BD001EBC1FDC26BEF
:1035B000C1BFC269C151C2110AE10A0EE66EFCEC3C
:1035C0002AF041E9F350036EF450046E09D00B0E5B
:1035D000E66EFCEC2AF041E9F350036EF450046E01
:1035E00003EBF3FF04EBF4FF00D043E9E7CFD9FF8F
:1035F0001200D9CFE6FFE1CFD9FF83E94AE8036A99
:10360000046A056A066A076A086A096A0A6A0B6A2E
:103610000C6ACA940D01466B476B9E927B0ECA6E74
:103620009A0ECC6E010E0D014C6F4D6B0D01AD6B02
:10363000AE6B0D01AF6BB06B01EBC1FD0D01C26B49
:10364000C1BFC269C1CDE6FF640EE66EE66AE66AF6
:10365000E66A88DC45E900EBC1FD0D01C26BC1BF24
:10366000C269C1CDE6FF01EBC3FDC46BC3BFC46932
:10367000C3CDE6FF2FDF42E9F350036EF450046E32
:103680000F0104850350041036E000EBC1FD0D016D
:10369000C26BC1BFC269C1CDE6FF01EBC3FDC46B04
:1036A000C3BFC469C3CDE6FF15DF42E9F350036E23
:1036B000F450046E0D01455146111CE0456B466BFC
:1036C00001EBC1FD0D01C26BC1BFC269C151C21185
:1036D00007E10B0EE66EE66A6EEC02F042E906D0F8
:1036E0000C0EE66EE66A6EEC02F042E9000EF36E36
:1036F000F46A90D2C7D7B8900F0104957B0E046F7F
:10370000066B0D01AF6BB06B0F01048506340450DE
:10371000061804E60550035C065004583CE383EBAE
:1037200005F084EB06F000EBC1FD0D01C26BC1BFDB
:10373000C269C1CDE6FF01EBC3FDC46BC3BFC46961
:10374000C3CDE6FFC7DE42E9F350036EF450046ECA
:103750000D01455146111EE0056A066A456B466B30
:1037600001EBC1FD0D01C26BC1BFC269C151C211E4
:1037700007E10B0EE66EE66A6EEC02F042E906D057
:103780000C0EE66EE66A6EEC02F042E9000EF36E95
:10379000F46A40D2BBD7B8900F0104957B0E046F3A
:1037A000066B0D01AF6BB06B01EBC1FD0D01C26B80
:1037B000C1BFC269C151C2112BE101EBC1FDC26B96
:1037C000C1BFC269C1CDE6FFA5CDC3FDA6CDC4FD75
:1037D000E80EC403F3CFC4FD030EC303F350C427A4
:1037E000E80EC303F3CFC3FDF450C427C56BC66B0B
:1037F000C4AF02D0C569C669C3CDE6FFC4CDE6FF3C
:10380000C5CDE6FFC6CDE6FFB2EC17F045E92AD0FC
:1038100001EBC1FDC26BC1BFC269C1CDE6FFA7CD3F
:10382000C3FDA8CDC4FDE80EC403F3CFC4FD030E51
:10383000C303F350C427E80EC303F3CFC3FDF45012
:10384000C427C56BC66BC4AF02D0C569C669C3CDFA
:10385000E6FFC4CDE6FFC5CDE6FFC6CDE6FFB2EC80
:1038600017F045E905EBE6FF06EBE6FFA6EC1FF0D7
:10387000E552E5CFC4FDE5CFC3FDE5CFC2FDE7CFFF
:10388000C1FD0D01C151096EC2510A6EC3510B6ECB
:10389000C4510C6EE66AE66A800EE66E450EE66E70
:1038A000E66AE66A400EE66EE66E09EBE6FF0AEBB4
:1038B000E6FF0BEBE6FF0CEBE6FFF2EC22F0A0ECF0
:1038C00021F0E552E5CFC4FDE5CFC3FDE5CFC2FD54
:1038D000E7CFC1FD0D01C151096EC2510A6EC3513E
:1038E0000B6EC4510C6ED50EE66E040EE66EB50E70
:1038F000E66E3F0EE66EE66AE66AE66A400EE66E41
:1039000009EBE6FF0AEBE6FF0BEBE6FF0CEBE6FF4D
:10391000F2EC22F0A0EC21F0E552E5CFC4FDE5CFBA
:10392000C3FDE5CFC2FDE7CFC1FD0D01C151096E59
:10393000C2510A6EC3510B6EC4510C6E01EBC1FD36
:10394000C26BC1BFC269C151C21101E09ED00D015D
:10395000D890A65104E6E80EA55D030EA65908E32B
:10396000D890A65104E6D00EA55D070EA65902E335
:10397000000E01D0010E0D01C36FC46BC351C41101
:1039800008E00D01683504E26751E808030E685548
:1039900002E3000E01D0010E0D01C16FC26BC151D7
:1039A000C21124E0CD0EE66ECC0EE66E8C0EE66EF5
:1039B0003F0EE66E09EBE6FF0AEBE6FF0BEBE6FFD8
:1039C0000CEBE6FFA0EC21F0E552E5CFC4FDE5CF1E
:1039D000C3FDE5CFC2FDE7CFC1FD0D01C151096EA9
:1039E000C2510A6EC3510B6EC4510C6E0D01D890BA
:1039F000A65104E6D00EA55D070EA65907E3A6352D
:103A000004E2A551C408090EA65502E2000E01D039
:103A1000010E0D01C36FC46BC351C41108E00D0149
:103A2000683504E26751E808030E685502E3000EAA
:103A300001D0010E0D01C16FC26BC151C21124E052
:103A4000480EE66EE10EE66E9A0EE66E3F0EE66EEC
:103A500009EBE6FF0AEBE6FF0BEBE6FF0CEBE6FFFC
:103A6000A0EC21F0E552E5CFC4FDE5CFC3FDE5CFE5
:103A7000C2FDE7CFC1FD0D01C151096EC2510A6EF1
:103A8000C3510B6EC4510C6E9DD00D01D890A8513E
:103A900004E6E80EA75D030EA85908E3D890A851E4
:103AA00004E6D00EA75D070EA85902E3000E01D070
:103AB000010E0D01C36FC46BC351C41108E00D01A9
:103AC000723504E27151E808030E725502E3000EEC
:103AD00001D0010E0D01C16FC26BC151C21124E0B2
:103AE000CD0EE66ECC0EE66E8C0EE66E3F0EE66EEA
:103AF00009EBE6FF0AEBE6FF0BEBE6FF0CEBE6FF5C
:103B0000A0EC21F0E552E5CFC4FDE5CFC3FDE5CF44
:103B1000C2FDE7CFC1FD0D01C151096EC2510A6E50
:103B2000C3510B6EC4510C6E0D01D890A85104E620
:103B3000D00EA75D070EA85907E3A83504E2A751E8
:103B4000C408090EA85502E2000E01D0010E0D01B5
:103B5000C36FC46BC351C41108E00D01723504E298
:103B60007151E808030E725502E3000E01D0010EF8
:103B70000D01C16FC26BC151C21124E0480EE66E47
:103B8000E10EE66E9A0EE66E3F0EE66E09EBE6FF7C
:103B90000AEBE6FF0BEBE6FF0CEBE6FFA0EC21F0F7
:103BA000E552E5CFC4FDE5CFC3FDE5CFC2FDE7CFCC
:103BB000C1FD0D01C151096EC2510A6EC3510B6E98
:103BC000C4510C6EE66AE66A7A0EE66E440EE66E44
:103BD00009EBE6FF0AEBE6FF0BEBE6FF0CEBE6FF7B
:103BE000F2EC22F0B0EC20F0E552E550066EE75022
:103BF000056E0D014C6B4D6B9E927B0ECA6E9A0E3C
:103C0000CC6E0D01AD6BAE6BCA8405EBF3FF06EB1A
:103C1000F4FF00D04BE9E7CFD9FF1200D9CFE6FF80
:103C2000E1CFD9FF84E948E8046A056A066A076AB1
:103C3000086A096A0A6A0B6A00EBC1FD0D01C26BD2
:103C4000C1BFC269C151C21141E167CDE6FF68CD74
:103C5000E6FFA6EC1FF001EBE6FF02EBE6FFA6ECA9
:103C60001FF0A0EC21F0E552E5CFC4FDE5CFC3FD88
:103C7000E5CFC2FDE7CFC1FD0D01C151046EC251B8
:103C8000056EC351066EC451076E01EBE6FF02EBF1
:103C9000E6FFA6EC1FF067CDE6FF68CDE6FFA6ECD9
:103CA0001FF0A0EC21F0E552E5CFC4FDE5CFC3FD48
:103CB000E5CFC2FDE7CFC1FD0D01C151086EC25174
:103CC000096EC3510A6EC4510B6E40D071CDE6FF30
:103CD00072CDE6FFA6EC1FF001EBE6FF02EBE6FF7C
:103CE000A6EC1FF0A0EC21F0E552E5CFC4FDE5CF36
:103CF000C3FDE5CFC2FDE7CFC1FD0D01C151046E8B
:103D0000C251056EC351066EC451076E01EBE6FF4A
:103D100002EBE6FFA6EC1FF071CDE6FF72CDE6FFE9
:103D2000A6EC1FF0A0EC21F0E552E5CFC4FDE5CFF5
:103D3000C3FDE5CFC2FDE7CFC1FD0D01C151086E46
:103D4000C251096EC3510A6EC4510B6E00EBC1FD26
:103D5000C26BC1BFC269C151C21101E079D00D016E
:103D6000683504E26751C808000E685539E2E66A12
:103D7000E66A400EE66E3F0EE66E04EBE6FF05EBEC
:103D8000E6FF06EBE6FF07EBE6FFFDEC21F00D0199
:103D9000C36FC46BC351C41118E1E66AE66A400EF2
:103DA000E66E3F0EE66E08EBE6FF09EBE6FF0AEB78
:103DB000E6FF0BEBE6FFFDEC21F00D01C56FC66BD6
:103DC000C551C61102E1000E01D0010EC16FC26BD8
:103DD000C151C21103E0000EB3D039D0010EB0D0F2
:103DE000E66AE66AE66A3F0EE66E04EBE6FF05EB7E
:103DF000E6FF06EBE6FF07EBE6FFFDEC21F00D0129
:103E0000C36FC46BC351C41117E1E66AE66AE66A80
:103E10003F0EE66E08EBE6FF09EBE6FF0AEBE6FF76
:103E20000BEBE6FFFDEC21F00D01C56FC66BC55134
:103E3000C61102E1000E01D0010EC16FC26BC1516B
:103E4000C21103E0000E7CD002D0010E79D078D0F0
:103E50000D01723504E27151C808000E725539E245
:103E6000E66AE66A400EE66E3F0EE66E04EBE6FF9B
:103E700005EBE6FF06EBE6FF07EBE6FFFDEC21F0C6
:103E80000D01C36FC46BC351C41118E1E66AE66A41
:103E9000400EE66E3F0EE66E08EBE6FF09EBE6FF2E
:103EA0000AEBE6FF0BEBE6FFFDEC21F00D01C56F21
:103EB000C66BC551C61102E1000E01D0010EC16FE3
:103EC000C26BC151C21103E0000E3AD039D0010ECD
:103ED00037D0E66AE66AE66A3F0EE66E04EBE6FF76
:103EE00005EBE6FF06EBE6FF07EBE6FFFDEC21F056
:103EF0000D01C36FC46BC351C41117E1E66AE66AD2
:103F0000E66A3F0EE66E08EBE6FF09EBE6FF0AEB1A
:103F1000E6FF0BEBE6FFFDEC21F00D01C56FC66B74
:103F2000C551C61102E1000E01D0010EC16FC26B76
:103F3000C151C21103E0000E03D002D0010E00D027
:083F400049E9E7CFD9FF1200A7
:083F4800D89801D0D88850E898
:103F5000D9CFE6FFDACFE6FFE1CFD9FFE2CFDAFF34
:103F600094E9089E07E701AE05D0006C011EE86ADF
:103F70000122088E81EB0CF080EB0BF00A6A096AD3
:103F80008E0E0D6E0E6AC5EF1FF00C500B100A104E
:103F9000091055E00EBE4DD00CBE0CD00D500E10C9
:103FA00048E0D89009360A360B360C360D06D8A0F4
:103FB0000E06F2D70E5031E10D282FE009AE11D0D8
:103FC0007F0E091402E10AA00CD00A2AE86A0B222B
:103FD0000C2207E3D8800C320B320A320D2A0D284E
:103FE0001CE00D5026E08AEB00F08BEB01F00C3466
:103FF000026E0D30036E0232039E08BE038EE55240
:10400000E5CFDAFFE7CFD9FF4EE912007F0E036E4E
:10401000FF0E026E016E006EF2D77F0E08BEFF0E1D
:10402000036E02D07F0E036E800E026E016A006A7C
:10403000E6D708AE04D0800E036E026AF7D7036A93
:10404000026AF4D7D89801D0D8884EE8D9CFE6FFD5
:10405000DACFE6FFE1CFD9FFE2CFDAFF94E9089E9D
:104060000BE703AE09D0006C011E021E031EE86AB6
:10407000012202220322088E83EB0CF082EB0BF06C
:1040800081EB0AF080EB09F09E0E0D6E0E6AC5EF13
:104090001FF045E8D9CFE6FFDACFE6FFE1CFD9FF41
:1040A000E2CFDAFF8BE9086A9AEC20F008B65DEF00
:1040B00020F008AA0AD008BC03D07F0E006E1BD0E7
:1040C000800E006E18D0006A16D008B8FCD7870E94
:1040D0000360F1D77E0E0364F6D7860E035C04E01E
:1040E000D8900232032AF9D708AC03D0026C02AE92
:1040F000EAD782EB00F0E552E5CFDAFFE7CFD9FF50
:1041000048E912000636073602E30884087E06E115
:104110000880076A066A056A046A1200072803E035
:10412000D88006321200D890063202E108821200CE
:10413000088612000236033602E3088C087E06E188
:104140000888036A026A016A006A1200032803E011
:10415000D88002321200D8900232EAE1088A1200B6
:1041600045E8D9CFE6FFDACFE6FFE1CFD9FFE2CFCE
:10417000DAFF8BE9086A9AEC20F008B6C4EF20F069
:1041800008AA0ED008BC05D07F0E016EFF0E006E8F
:1041900023D0800E016E006A1FD0016A006A1CD015
:1041A00008B8FBD78F0E0360EDD77E0E0364F5D7FA
:1041B0008E0E035C05E0D89002320132032AF8D754
:1041C00008AC06D0016C021EE86A022202AEE5D7F6
:1041D00081EB00F082EB01F0E552E5CFDAFFE7CFAB
:1041E000D9FF47E9120045E8D9CFE6FFDACFE6FF6D
:1041F000E1CFD9FFE2CFDAFF8BE9086A9AEC20F031
:1042000008B607EF21F008AA0FD008BC07D07F0E30
:10421000036EFF0E026E016E006E2DD0800E036ED7
:1042200001D0036A000EF6D708B8FBD7076A9F0EC5
:104230000360EBD77E0E0364F4D79E0E035C07E0A9
:10424000D8900232013200320732032AF6D708AC86
:104250000AD0076C001E011E021EE86A002201221D
:10426000022202AEDED782EB03F081EB02F080EB9C
:1042700001F087EB00F0E552E5CFDAFFE7CFD9FF99
:1042800045E9120045E8D9CFE6FFDACFE6FFE1CFF6
:10429000D9FFE2CFDAFF8FE90C6A1200F3DF0C805E
:1042A00001D0F0DFE86A03AE5FEF21F0006C011E81
:1042B000021E031E0122022203220CB00C7E07AE56
:1042C0006AEF21F0046C051E061E071E0522062259
:1042D00007220C7E1FEC24F007BE9BEF21F00CAEF2
:1042E0000FD0046C051E061E071EE86A0522062272
:1042F0000722086C091E0A1E0B1E09220A220B2225
:104300000CB00AD088EB00F089EB01F08AEB02F0E8
:104310008BEB03F00CA008D084EB00F085EB01F0F0
:1043200086EB02F087EB03F0E552E5CFDAFFE7CF4B
:10433000D9FF49E9000C0CBE71EF21F0E1DFFF0C61
:104340004AE8D9CFE6FFDACFE6FFE1CFD9FFE2CFE7
:10435000DAFF94E9086A82EC20F09AEC20F008B6C3
:1043600006EF20F008A205D008BA06EF20F00DEF06
:1043700020F008BA19EF20F008A005D008B806EF21
:1043800020F019EF20F008B80DEF20F00E6A7F0E34
:1043900007240D6EE86A0E2203500D5EE86A0E5A7D
:1043A0001A0E0F6E076A096A0A6A0B6A0C6A0050D5
:1043B000045E0150055A0250065A000E075A09E7DA
:1043C000005004260150052202500622000E07224A
:1043D00001D0098AD8900436053606360736D890BB
:1043E00009360A360B360C360F2EE1D7065005106B
:1043F0000410D8A4098AC5EF1FF006EC22F0E8B635
:10440000000CE8B0000CE8A4000C010C47E8D9CF80
:10441000E6FFDACFE6FFE1CFD9FFE2CFDAFF91E99D
:10442000086A82EC20F09AEC20F008B64ED008AE74
:1044300008D008A004D008A802D0088046D0089070
:1044400044D00350075C0BE10250065C08E10150C8
:10445000055C05E10050045C02E1088036D0D8A07C
:1044600002D0088E10D007500318071A031A0650FE
:104470000218061A021A05500118051A011A0450EA
:104480000018041A001A0350075C10E0FF0F09E03F
:10449000089008B403D008AE088417D008AE08947A
:1044A00014D0032AD8900232013200320050045E48
:1044B0000150055A0250065A06BEEAD7D890043673
:1044C00005360636072EF8D7C8D70850E552E5CF8F
:1044D000DAFFE7CFD9FF4FE9120044E8D9CFE6FF72
:1044E000DACFE6FFE1CFD9FFE2CFDAFF8AE980EB4E
:1044F00004F081EB05F082EB06F002500402F45068
:10450000016EF350006E0350076E0502F450036E07
:10451000F350026E07500402F3500126F4500222B9
:10452000E86A032206500502F3500126F4500222E5
:10453000E86A0322E552E5CFDAFFE7CFD9FF46E983
:10454000000C44E8D9CFE6FFDACFE6FFE1CFD9FF90
:10455000E2CFDAFF8EE980EB08F081EB09F082EB25
:104560000AF083EB0BF004500802F350006EF45095
:10457000016E04500902F3500126000EF420026E71
:1045800004500A02F3500226000EF420036E045079
:104590000B02F350032605500802F3500126F45095
:1045A0000222000E032205500902F3500226F450A5
:1045B000032205500A02F350032606500802F35066
:1045C0000226F450032206500902F3500326075036
:1045D0000802F3500326E552E5CFDAFFE7CFD9FF13
:1045E00048E9000C4AE8D9CFE6FFDACFE6FFE1CF91
:1045F000D9FFE2CFDAFF94E9086A82EC20F09AEC66
:1046000020F008B606EF20F008A205D008B806EFA3
:1046100020F00DEF20F008AA05D008B006EF20F03A
:104620000DEF20F008B002D008A802D019EF20F05A
:104630000E6A035007240D6EE86A0E227E0E0D5E90
:10464000E86A0E5A096A0A6A0B6A0C6A0250060284
:10465000F4500C6EF3500B6E01500602F3500A2614
:10466000F4500B22000E0C2202500502F3500A26D1
:10467000F4500B22000E0C2200500602F3500926C3
:10468000F4500A22000E0B220C2201500502F350B6
:104690000926F4500A22000E0B220C2202500402BA
:1046A000F3500926F4500A22000E0B220C2200506F
:1046B0000502F4500926000E0A220B220C2201509A
:1046C0000402F4500926000E0A220B220C22C5EF28
:1046D0001FF0D88801D0D8984AE8D9CFE6FFDACFC2
:1046E000E6FFE1CFD9FFE2CFDAFF94E9D8B8037E45
:1046F000086A82EC20F09AEC20F008B606EF20F071
:1047000008A20AD008AA03D008BE06EF20F008A429
:1047100012EF20F00FEF20F008AA05D008AC12EF3E
:1047200020F00FEF20F008A00AD008A808D008BE9B
:1047300004D008A402D01BEF20F01FEF20F0096A7C
:104740000E6A0350075C106E10E384EB0AF085EBF1
:104750000BF086EB0CF087EB0FF080EB04F081EBB5
:1047600005F082EB06F0083A09D080EB0AF081EB05
:104770000BF082EB0CF083EB0FF0106C089E08BC82
:10478000088E8FEB0DF008B0F1EF1FF01A0E1060DD
:10479000F1EF1FF00D6A076A08A408D0046C051E2B
:1047A000061E071EE86A05220622072208AC08D06A
:1047B0000A6C0B1E0C1E0D1EE86A0B220C220D2229
:1047C000116A105207E00734063205320432113202
:1047D000102EF9D704500A2605500B2206500C2241
:1047E00007500D2291EB09F0089E0DAE0BD0096C1D
:1047F0000A1E0B1E0C1E0D1EE86A0A220B220C223A
:104800000D22088E0DA006D0D8800C320B320A3251
:1048100009320F2A8FEB0DF0C5EF1FF045E8D9CF15
:10482000E6FFDACFE6FFE1CFD9FFE2CFDAFF8FE98B
:104830000C6A1200F3DF0C8003D0F0DF01D00C8291
:104840000B6A0A6A096A086A200EE76ED890043675
:10485000053606360736083609360A360B36005056
:10486000085C0150095802500A5803500B5809E3DC
:104870000050085E0150095A02500A5A03500B5A60
:10488000042AE72EE4D70CB212000CB00AD088EB51
:1048900000F089EB01F08AEB02F08BEB03F00CA047
:1048A00008D084EB00F085EB01F086EB02F087EB9B
:1048B00003F0E552E5CFDAFFE7CFD9FF49E912006F
:1048C000D9CFE6FFE1CFD9FF84E902EBC1FD0D01AD
:1048D000C26BC1BFC2690B0EC11901E1C2513EE0FA
:1048E0000A0EC11901E1C2512CE0090EC11901E102
:1048F000C2511AE0080EC11901E1C25108E0400E90
:10490000E66E02EBC1FDC26BC1AF36D034D0400EB3
:10491000E66E02EBC1FDC26BC1BFC269C1CDE6FF4D
:10492000C3EC34F042E92ED0420EE66E02EBC1FD3C
:10493000C26BC1BFC269C1CDE6FFC3EC34F042E92E
:1049400021D0440EE66E02EBC1FDC26BC1BFC2694D
:10495000C1CDE6FFC3EC34F042E914D0460EE66E5A
:1049600002EBC1FDC26BC1BFC269C1CDE6FFC3ECA2
:1049700034F042E907D0C269C1CDE6FFC3EC34F0A0
:1049800042E900D001EBC1FD0D01C26BC1BFC2699C
:10499000C1CDE6FF02EBC3FDC46BC3BFC469C3CD89
:1049A000E6FFC3EC34F042E900EBC1FD0D01C26B40
:1049B000C1BFC269C1CDE6FF02EBC3FDC46BC3BF7B
:1049C000C469C3CDE6FFC3EC34F042E9848A41E90F
:1049D000E7CFD9FF1200D9CFE6FFE1CFD9FF83E9B6
:1049E00041E8036A01EBC1FD0D01C26BC1BFC269A1
:1049F0000B0EC11901E1C2513EE00A0EC11901E1DD
:104A0000C2512CE0090EC11901E1C2511AE0080E91
:104A1000C11901E1C25108E0410EE66E01EBC1FD92
:104A2000C26BC1AF36D034D0410EE66E01EBC1FD92
:104A3000C26BC1BFC269C1CDE6FFC3EC34F042E92D
:104A40002ED0430EE66E01EBC1FDC26BC1BFC26941
:104A5000C1CDE6FFC3EC34F042E921D0450EE66E4D
:104A600001EBC1FDC26BC1BFC269C1CDE6FFC3ECA2
:104A700034F042E914D0470EE66E01EBC1FDC26B83
:104A8000C1BFC269C1CDE6FFC3EC34F042E907D033
:104A9000C269C1CDE6FFC3EC34F042E900D000EBBF
:104AA000C1FD0D01C26BC1BFC269C1CDE6FF01EB03
:104AB000C3FDC46BC3BFC469C3CDE6FFC3EC34F010
:104AC00042E9E66A01EBC1FD0D01C26BC1BFC269DB
:104AD000C1CDE6FFC3EC34F042E9036E848A03EBF8
:104AE000C1FD0D01C26BC1BFC269C15100D042E915
:104AF000E7CFD9FF1200D9CFE6FFE1CFD9FF82E996
:104B0000100EE66E00EBC1FD0D01C26BC1BFC269A4
:104B1000C1CDE6FF60DF42E9110EE66E00EBC1FD9C
:104B20000D01C26BC1BFC269C1CDE6FF54DF42E9CE
:104B300041E9E7CFD9FF1200D9CFE6FFE1CFD9FF96
:104B400083E941E8036A00EBC1FD0D01C26BC1BFFF
:104B5000C269C151C2110DE10E0EE66E01EBC1FD3D
:104B6000C26BC1BFC269C1CDE6FF35DF42E9036E4A
:104B70000CD00F0EE66E01EBC1FDC26BC1BFC26966
:104B8000C1CDE6FF28DF42E9036E01EBC1FD0D0157
:104B9000C26BC1BFC269090EC11901E1C25107E070
:104BA000080EC11901E1C25101E002D001D000D0CC
:104BB00042E9E7CFD9FF1200D9CFE6FFE1CFD9FF15
:104BC00082E9280EE66E0A0EE66E00EBC1FD0D01CD
:104BD000C26BC1BFC269C1CDE6FF72DE43E9280ED8
:104BE000E66E0B0EE66E00EBC1FD0D01C26BC1BFA0
:104BF000C269C1CDE6FF64DE43E900EBC1FD0D01F2
:104C0000C26BC1BFC2690B0EC11901E1C25101E102
:104C100086D10A0EC11901E1C25101E115D1090E77
:104C2000C11901E1C25101E18ED0080EC11901E1A3
:104C3000C25108E0E668E66A00EBC1FDC26BC1AF95
:104C4000DAD1D8D1E668E66A00EBC1FDC26BC1BF1C
:104C5000C269C1CDE6FF34DE43E9E668010EE66EC7
:104C600000EBC1FD0D01C26BC1BFC269C1CDE6FF42
:104C700027DE43E9E66A020EE66E00EBC1FD0D0198
:104C8000C26BC1BFC269C1CDE6FF1ADE43E9E66A65
:104C9000030EE66E00EBC1FD0D01C26BC1BFC26920
:104CA000C1CDE6FF0DDE43E9E668040EE66E00EBDB
:104CB000C1FD0D01C26BC1BFC269C1CDE6FF00DEFF
:104CC00043E9E668050EE66E00EBC1FD0D01C26B1F
:104CD000C1BFC269C1CDE6FFF3DD43E9E66A080E54
:104CE000E66E00EBC1FD0D01C26BC1BFC269C1CD53
:104CF000E6FFE6DD43E9E66A090EE66E00EBC1FD7C
:104D00000D01C26BC1BFC269C1CDE6FFD9DD43E968
:104D1000E6680C0EE66E00EBC1FD0D01C26BC1BF73
:104D2000C269C1CDE6FFCCDD43E9E6680D0EE66E53
:104D300000EBC1FD0D01C26BC1BFC269C1CDE6FF71
:104D4000BFDD43E9D5D1E668E66A00EBC1FDC26B81
:104D5000C1BFC269C1CDE6FFB3DD43E9E668010E1C
:104D6000E66E00EBC1FD0D01C26BC1BFC269C1CDD2
:104D7000E6FFA6DD43E9E66A020EE66E00EBC1FD42
:104D80000D01C26BC1BFC269C1CDE6FF99DD43E928
:104D9000E66A030EE66E00EBC1FD0D01C26BC1BFFA
:104DA000C269C1CDE6FF8CDD43E9E668040EE66E1C
:104DB00000EBC1FD0D01C26BC1BFC269C1CDE6FFF1
:104DC0007FDD43E9E668050EE66E00EBC1FD0D01EF
:104DD000C26BC1BFC269C1CDE6FF72DD43E9E66ABD
:104DE000080EE66E00EBC1FD0D01C26BC1BFC269CA
:104DF000C1CDE6FF65DD43E9E66A090EE66E00EB2C
:104E0000C1FD0D01C26BC1BFC269C1CDE6FF58DD56
:104E100043E9E6680C0EE66E00EBC1FD0D01C26BC6
:104E2000C1BFC269C1CDE6FF4BDD43E9E6680D0EA7
:104E3000E66E00EBC1FD0D01C26BC1BFC269C1CD01
:104E4000E6FF3EDD43E954D1E66AE66A00EBC1FDC8
:104E5000C26BC1BFC269C1CDE6FF32DD43E9E66A7C
:104E6000010EE66E00EBC1FD0D01C26BC1BFC26950
:104E7000C1CDE6FF25DD43E9E66A040EE66E00EBF0
:104E8000C1FD0D01C26BC1BFC269C1CDE6FF18DD16
:104E900043E9E66A050EE66E00EBC1FD0D01C26B4B
:104EA000C1BFC269C1CDE6FF0BDD43E9BC0EE66EB2
:104EB000120EE66E00EBC1FD0D01C26BC1BFC269EF
:104EC000C1CDE6FFFDDC43E9250EE66E130EE66E6E
:104ED00000EBC1FD0D01C26BC1BFC269C1CDE6FFD0
:104EE000EFDC43E9BC0EE66E140EE66E00EBC1FD8E
:104EF0000D01C26BC1BFC269C1CDE6FFE1DC43E970
:104F0000250EE66E150EE66E00EBC1FD0D01C26BBF
:104F1000C1BFC269C1CDE6FFD3DC43E9E9D0E66A8F
:104F2000E66A00EBC1FDC26BC1BFC269C1CDE6FF3D
:104F3000C7DC43E9E66A010EE66E00EBC1FD0D0138
:104F4000C26BC1BFC269C1CDE6FFBADC43E9E66A04
:104F5000040EE66E00EBC1FD0D01C26BC1BFC2695C
:104F6000C1CDE6FFADDC43E9E66A050EE66E00EB77
:104F7000C1FD0D01C26BC1BFC269C1CDE6FFA0DC9E
:104F800043E9FE0EE66E120EE66E00EBC1FD0D016A
:104F9000C26BC1BFC269C1CDE6FF92DC43E9AB0E73
:104FA000E66E130EE66E00EBC1FD0D01C26BC1BFD4
:104FB000C269C1CDE6FF84DC43E9FE0EE66E140E45
:104FC000E66E00EBC1FD0D01C26BC1BFC269C1CD70
:104FD000E6FF76DC43E9AB0EE66E150EE66E00EBFF
:104FE000C1FD0D01C26BC1BFC269C1CDE6FF68DC66
:104FF00043E97ED0C269C1CDE6FF62DC43E9E668E1
:10500000010EE66E00EBC1FD0D01C26BC1BFC269AE
:10501000C1CDE6FF55DC43E9E66A020EE66E00EB21
:10502000C1FD0D01C26BC1BFC269C1CDE6FF48DC45
:1050300043E9E66A030EE66E00EBC1FD0D01C26BAB
:10504000C1BFC269C1CDE6FF3BDC43E9E668040E9F
:10505000E66E00EBC1FD0D01C26BC1BFC269C1CDDF
:10506000E6FF2EDC43E9E668050EE66E00EBC1FDC7
:105070000D01C26BC1BFC269C1CDE6FF21DC43E9AE
:10508000E66A080EE66E00EBC1FD0D01C26BC1BF02
:10509000C269C1CDE6FF14DC43E9E66A090EE66E9B
:1050A00000EBC1FD0D01C26BC1BFC269C1CDE6FFFE
:1050B00060EC24F043E9E6680C0EE66E00EBC1FDFF
:1050C0000D01C26BC1BFC269C1CDE6FF60EC24F027
:1050D00043E9E6680D0EE66E00EBC1FD0D01C26B03
:1050E000C1BFC269C1CDE6FF60EC24F043E900D046
:0850F00041E9E7CFD9FF1200EE
:0850F800D9CFE6FFE1CFD9FF9B
:1051000083E99E9C9E9C9F8C9D9CC19E0E0147693D
:1051100046694569040EC16E340EC06E4C0E8D6F2B
:105120001C0E8C6F0A0E8B6F020E8A6F830E896FB6
:1051300000EBC1FD0D01C26BC1BFC269C151C211FB
:1051400004E10E01080E886F03D00E01090E886F6E
:10515000876B866B816B806B7F6B7E6B01EBC1FD18
:105160000D01C26BC1BFC269020EC11901E1C2517A
:1051700027E0010EC11901E1C25116E0C15101E160
:10518000C25109E00E01856BF70E846F010E836F2B
:10519000400E826F20D00E01856BF70E846F010EDA
:1051A000836F400E826F17D0C06A0E01480E8D6F5C
:1051B0008C6B896B886B856B846B836B826B0BD07C
:1051C0000E013C0E8C6F856BF70E846FE10E836FC2
:1051D000E70E826F00D0010EF36EF46AF3500118EF
:1051E00004E1000E01BEFF0EF41801E19CD000EBBB
:1051F000C1FD0D01C26BC1BFC269C151C2113EE107
:10520000C26AC36A0E01486B496B4A6B4B6B4C6BAD
:105210004D6B4E6B4F6B506B516B6F0E526F040E9C
:10522000536F546B556B56690B0E576F586B596B18
:105230005A6B5B6B5C6B5D6B5E6B5F6B606B616B2A
:10524000626B636B646B656BE10E666F0A0E676F72
:1052500068690B0E696FEC0E6A6F0B0E6B6F6C6BEF
:105260006D6B400E6E6F0C0E6F6FEC0E706F0B0E51
:10527000716F7269736F7469756F55D0FE0EC26E6F
:105280000F0EC36E0E01FE0E486F0F0E496FFE0E1D
:105290004A6F0F0E4B6F4C6B4D6B4E694F6FFE0E8E
:1052A000506F0F0E516FFE0E526F0F0E536FFE0EAA
:1052B000546F0F0E556FAB0E566F0E0E576F586929
:1052C0000F0E596F5A695B6F5C695D6F5E695F6F46
:1052D000FE0E606F0F0E616FFE0E626F0F0E636F3A
:1052E000FE0E646F0F0E656F0E0E666F0D0E676F0C
:1052F000AB0E686F0E0E696F920E6A6F0E0E6B6FBB
:105300006C690F0E6D6FF90E6E6F0E0E6F6F920E51
:10531000706F0E0E716FAB0E726F0E0E736FAB0E61
:10532000746F0E0E756F41E9E7CFD9FF12000D01C2
:10533000AD6BAE6BCA84C050010B0D01C16FC26B67
:10534000C151C2110CE10D014751481107E0476BF3
:10535000486B0D01AD6BAE6B000E0CD0ECD7CA9450
:105360009E927B0ECA6E9A0ECC6E0D01AD6BAE6B2B
:10537000010E00D01200D9CFE6FFE1CFD9FF82E9BC
:1053800000EBC1FD0D01C26BC1BFC269020EC119A4
:1053900001E1C2511BE0010EC11901E1C25110E04F
:1053A000C15101E1C25106E00D01010ECB6FCD6B81
:1053B000CC6B12D00D01010ECB6FCD6BCC6B0CD032
:1053C0000D01CB6B010ECD6FCC6B06D00D01CB6BFD
:1053D000CD6B010ECC6F00D041E9E7CFD9FF1200B1
:1053E000D9CFE6FFE1CFD9FF82E900EBC1FD0D0186
:1053F000C26BC1BFC269160EC11901E1C25101E100
:10540000E8D0150EC11901E1C25101E1DDD0140E41
:10541000C11901E1C25101E1D2D0130EC11901E15C
:10542000C25101E1C7D0120EC11901E1C25101E11F
:10543000BCD0110EC11901E1C25101E1B1D0100E71
:10544000C11901E1C25101E1A6D00F0EC11901E15C
:10545000C25101E19BD00E0EC11901E1C25101E11F
:1054600090D00D0EC11901E1C25101E185D00C0EA1
:10547000C11901E1C25101E17AD00B0EC11901E15C
:10548000C25170E00A0EC11901E1C25166E0090E75
:10549000C11901E1C2515CE0080EC11901E1C2511C
:1054A00052E0070EC11901E1C25148E0060EC119D0
:1054B00001E1C2513EE0050EC11901E1C25134E0E3
:1054C000040EC11901E1C2512AE0030EC11901E124
:1054D000C25120E0020EC11901E1C25116E0010ED5
:1054E000C11901E1C2510CE0C15101E1C25104E016
:1054F0000E01876B866B72D00E01876B866B6ED048
:105500000E01010E876F866F69D00E01020E876F44
:10551000866F64D00E01040E876F866F5FD00E0118
:10552000050E876F866F5AD00E01060E876F866F45
:1055300055D00E01070E876F866F50D00E01080EF2
:10554000876F866F4BD00E01090E876F866F46D02E
:105550000E010A0E876F866F41D00E010B0E876F0A
:10556000866F3CD00E010C0E876F866F37D00E0110
:105570000D0E876F866F32D00E010E0E876F866F0D
:105580002DD00E010F0E876F866F28D00E01100EE2
:10559000876F866F23D00E01110E876F866F1ED026
:1055A0000E01120E876F866F19D00E01130E876FD2
:1055B000866F14D00E01140E876F866F0FD00E0108
:1055C000150E876F866F0AD00E01160E876F866FD5
:1055D00005D00E01170E876F866F00D0C082818ABA
:1055E000030EE66EE66A53EC39F042E9819AC09206
:1055F00041E9E7CFD9FF1200D9CFE6FFE1CFD9FFCC
:1056000082E900EBC1FD0D01C26BC1BFC269160E7C
:10561000C11901E1C25101E100D1150EC11901E129
:10562000C25101E1F4D0140EC11901E1C25101E1EE
:10563000E8D0130EC11901E1C25101E1DCD0120E14
:10564000C11901E1C25101E1D0D0110EC11901E12E
:10565000C25101E1C4D0100EC11901E1C25101E1F2
:10566000B8D00F0EC11901E1C25101E1ACD00E0E4C
:10567000C11901E1C25101E1A0D00D0EC11901E132
:10568000C25101E194D00C0EC11901E1C25101E1F6
:1056900088D00B0EC11901E1C25101E17CD00A0E84
:1056A000C11901E1C25171E0090EC11901E1C251F4
:1056B00066E0080EC11901E1C2515BE0070EC11995
:1056C00001E1C25150E0060EC11901E1C25145E0AD
:1056D000050EC11901E1C2513AE0040EC11901E100
:1056E000C2512FE0030EC11901E1C25124E0020EA4
:1056F000C11901E1C25119E0010EC11901E1C25104
:105700000EE0C15101E1C25104E0000EF36EF46AF3
:105710008BD0C2CFF3FFC3CFF4FF86D085D048CE65
:10572000F3FF49CEF4FF80D07FD04ACEF3FF4BCEBB
:10573000F4FF7AD079D04ECEF3FF4FCEF4FF74D081
:1057400073D050CEF3FF51CEF4FF6ED06DD052CE59
:10575000F3FF53CEF4FF68D067D054CEF3FF55CE9D
:10576000F4FF62D061D056CEF3FF57CEF4FF5CD089
:105770005BD058CEF3FF59CEF4FF56D055D05ACE59
:10578000F3FF5BCEF4FF50D04FD05CCEF3FF5DCE85
:10579000F4FF4AD049D05ECEF3FF5FCEF4FF44D091
:1057A00043D060CEF3FF61CEF4FF3ED03DD062CE59
:1057B000F3FF63CEF4FF38D037D064CEF3FF65CE6D
:1057C000F4FF32D031D066CEF3FF67CEF4FF2CD099
:1057D0002BD068CEF3FF69CEF4FF26D025D06ACE59
:1057E000F3FF6BCEF4FF20D01FD06CCEF3FF6DCE55
:1057F000F4FF1AD019D06ECEF3FF6FCEF4FF14D0A1
:1058000013D070CEF3FF71CEF4FF0ED00DD072CE58
:10581000F3FF73CEF4FF08D007D074CEF3FF75CE3C
:10582000F4FF02D001D000D041E9E7CFD9FF120048
:10583000D9CFE6FFE1CFD9FF84E900EBC1FD0D012F
:10584000C26BC1BFC269C151C2112AE001EBC1FDE7
:10585000C26BC1BFC269C151C2110BE0E66A02EB63
:10586000C1FDC26BC1BFC269C1CDE6FF45DC42E9E3
:105870000BD0010EE66E02EBC1FDC26BC1BFC26967
:10588000C1CDE6FF39DC42E99E9C9E9C9F8C9D8C9D
:10589000C18E020EE66EE66A3AEC39F042E90BD0B0
:1058A000C19E020EE66EE66A3AEC39F042E99E9C31
:0E58B0009F8C9D9C9E9C41E9E7CFD9FF120082
:0258BE00D9CF40
:1058C000E6FFE1CFD9FF83E941E8036A01EBC1FDBF
:1058D0000D01C26BC1BFC2690F0EC11901E1C251F6
:1058E00001E1FFD20E0EC11901E1C25101E1C6D2A0
:1058F0000D0EC11901E1C25101E18DD20C0EC11989
:1059000001E1C25101E154D20B0EC11901E1C251B2
:1059100001E11BD20A0EC11901E1C25101E1E2D13C
:10592000090EC11901E1C25101E1A9D1080EC11945
:1059300001E1C25101E170D1070EC11901E1C2516B
:1059400001E137D1060EC11901E1C25101E1FED0DA
:10595000050EC11901E1C25101E1C5D0040EC11902
:1059600001E1C25101E18CD0030EC11901E1C25124
:1059700054E0020EC11901E1C2511CE0010EC1192F
:1059800001E1C25114E0C15101E1C25102E0000E37
:10599000DCD200EBC1FDC26BC1BFC269C151C211F3
:1059A00002E0858801D08598010ECFD2CED2010EBB
:1059B000CCD2CBD2120EE66E0B0EE66EEBEC24F0E0
:1059C00042E9036E00EBC1FD0D01C26BC1BFC269AC
:1059D000C151C21110E103EBC1FDC26BC1BFC2696D
:1059E000800EC111E66E120EE66E0B0EE66E60ECD6
:1059F00024F043E90FD003EBC1FDC26BC1BFC26904
:105A00007F0EC115E66E120EE66E0B0EE66E60ECB2
:105A100024F043E9010E99D298D2120EE66E0B0ED5
:105A2000E66EEBEC24F042E9036E00EBC1FD0D01E4
:105A3000C26BC1BFC269C151C21110E103EBC1FD0C
:105A4000C26BC1BFC269400EC111E66E120EE66E96
:105A50000B0EE66E60EC24F043E90FD003EBC1FDC2
:105A6000C26BC1BFC269BF0EC115E66E120EE66EF3
:105A70000B0EE66E60EC24F043E9010E66D265D2AF
:105A8000120EE66E0B0EE66EEBEC24F042E9036EAE
:105A900000EBC1FD0D01C26BC1BFC269C151C21192
:105AA00010E103EBC1FDC26BC1BFC269200EC11181
